:100000000C942C040C9473040C9473040C947304DB
:100010000C9473040C9473040C9473040C94730484
:100020000C9473040C9473040C948F1E0C94621F34
:100030000C94B8150C9473040C9473040C9473040E
:100040000C9473040C9473040C9473040C94730454
:100050000C9473040C9420160C9473040C94730485
:100060000C9473040C9473040C9473040C94730434
:100070000C9473040C9473040C9473040C94730424
:100080000C9473040C9473040C9473040C94730414
:100090000C9473040C9473040C9473040C94730404
:1000A0000C9473040C9473040C9473042B001400CC
:1000B0001A000800150017001C0018000C001200A0
:1000C00013002A00290004001600070009000A0096
:1000D0000B000D000E000F0033003400E1001D0086
:1000E0001B00060019000500110010003600370043
:1000F00038002800BC5CE000E200E30001512C0065
:100100002C0002515000510052004F0035021E02D7
:100110001F022002210222022302240225022602BB
:10012000270201004C003A003B003C003D003E002D
:100130003F002D022E022F0230023102010040004A
:1001400041004200430044004500320264024A007C
:100150004D0001000100010001000100010001004B
:1001600001000100AB00AA00A900AE0035001E008E
:100170001F0020002100220023002400250026006B
:10018000270001004C003A003B003C003D003E00CF
:100190003F002D002E002F003000310001004000F4
:1001A00041004200430044004500320064004B001F
:1001B0004E000100010001000100010001000100EA
:1001C00001000100AB00AA00A900AE00010001007F
:1001D0000100010001000100010001000100010017
:1001E0000100010001000100010001000100010007
:1001F00001000100010001000100010001000100F7
:1002000001000100010001000100010001000100E6
:1006A00001000100010001000100010012036B00C4
:1006B0006500790062006F00610072006400000054
:1006C000160371006D006B006200750069006C001C
:1006D00064006500720000000403090409026D0053
:1006E000040100A0FA09040000010301010009212E
:1006F000110100012240000705810308000A0904D6
:1007000001000103010200092111010001224D0035
:100710000705820308000A09040200010300000023
:100720000921110100012236000705830308000A90
:100730000904030001030000000921110100012246
:100740003900070584032000011201100100000098
:1007500008EDFE606001000102000105010906A12B
:1007600001050719E029E7150025019508750181A4
:100770000205081901290595057501910295017574
:100780000391010507190029F71500250195F87552
:10079000018102C005010980A10185021601002620
:1007A00003001A81002A8300751095018100C0059D
:1007B0000C0901A1018503160100269C021A010003
:1007C0002A9C02751095018100C005010902A10152
:1007D0000901A10005091901290515002501950543
:1007E0007501810295017503810105010930093107
:1007F0001581257F95027508810609381581257FA9
:10080000950175088106050C0A38021581257F952A
:100810000175088106C0C005010906A10105071977
:10082000E029E715002501950875018102950175FC
:1008300008810105081901290595057501910295A1
:1008400001750391010507190029FF150026FF0016
:10085000950675088100C00011241FBECFEFDAE0B5
:10086000DEBFCDBF04B603FE27C080913302909156
:100870003402A0913502B09136028730904BA740E8
:10088000B04BD1F410923302109234021092350220
:100890001092360214BE84B7877F84BF0FB6F894D7
:1008A000A89580916000886180936000109260003C
:1008B0000FBEE0E0F0E3099511E0A0E0B1E0E2E571
:1008C000F5E402C005900D92A833B107D9F722E0F4
:1008D000A8E3B1E001C01D92A333B207E1F70E9483
:1008E000C91B0C94A7220C94000080E090E00895AE
:1008F0000895089581E00895089581E008950C9485
:100900007A040E944E0E2FEF84E39CE02150804039
:100910009040E1F700C000000C944616FF920F9340
:100920001F93CF93DF938C01FC01C081D181809113
:100930006E01811127C082818823F9F0CE010E94C7
:100940009A13F82E682FCE010E944513BE018F2DF9
:100950000E94CF05EC01B8010E947F04882331F08A
:10096000B801CE010E94F4078111C8C080E0DF9178
:10097000CF911F910F91FF900895CE010E946F13A8
:10098000F82EE4CFCE010E949A13BE01E1CFF80108
:100990008281882359F30E948104E8CFF801828183
:1009A000882321F38091F20181608093F201DECFF0
:1009B000F80182818823D1F280E00E945A1CD6CFB0
:1009C000F8018281882309F4B0C00E944815811182
:1009D00002C00E942E150E94651590E0909325029A
:1009E00080932402FE01E350FC45E231F105C0F49E
:1009F000E250FB4F809124020C9457221C051E05E7
:100A00002905200522052405260528052B052D0589
:100A10002F053A05310533053505370539053C0500
:100A200080912402816080932402809124020E949C
:100A300069150E944E0E9ACF8260F5CF8460F3CF85
:100A40008061F1CF8062EFCF8064EDCF8068EBCF23
:100A500084608860E8CF8E7FE6CF8D7FE4CF8B7F88
:100A6000E2CF8F7EE0CF8F7DDECF8F7BDCCF8F77A5
:100A7000DACF8B7F877FD7CF87FB992790F921E04B
:100A8000922790FB87F9CFCF80913C0181110FC055
:100A900080913801909139010E94F615883C9105AA
:100AA00030F486E20E94AD0A86E20E94890B82E061
:100AB0000E94DF0B5BCFF8018281882351F01092F6
:100AC0003D010E94EA1590933B0180933A0180E238
:100AD0004BC080913D0181110FC080913A019091EE
:100AE0003B010E94F615883C910530F487E20E9494
:100AF000AD0A87E20E94890B80E2DACFC531FCE5BE
:100B0000DF07D8F4C2308CE5D80708F059CFC115FB
:100B1000ECE5DE0709F43BCFC130DC4509F43ECFFC
:100B200081E080933C0180933D01C801DF91CF912A
:100B30001F910F91FF900C947D04C73C8CE5D80762
:100B400009F4B9CFA0F4C63CDC4551F7F801828125
:100B5000882309F499CF10923C010E94EA159093E2
:100B600039018093380182E00E94D80BFFCECA3C45
:100B70008CE5D80709F41CCFCB3CDC4589F6F8019D
:100B80008281882309F4F2CE82E017CF0C944308C7
:100B90000C9445080C947C040C94CA050895972F76
:100BA00070E02CE0929F600D711D1124FB0190E319
:100BB000899FE00DF11D1124EE0FFF1FE455FF4F3B
:100BC000859194910895FC01EE0FFF1FE455F94FB4
:100BD0008591949108950E94CF050E947207811516
:100BE00020E4920708F08DC0811540E3940708F0D7
:100BF000F6C0803E910508F071C0803C910508F078
:100C0000DAC0883A910580F4853A910508F0D8C099
:100C10008130910509F46EC020F08430910508F010
:100C200069C080E090E008958D3B9105D0F7883A47
:100C3000910509F418C1893A910509F417C18A3A56
:100C4000910509F416C18B3A910509F415C18C3A46
:100C5000910509F414C18B3B910509F413C18C3B38
:100C6000910509F412C18D3A910509F411C1803B37
:100C7000910509F410C18E3A910509F40FC18F3A1C
:100C8000910509F40EC1813B910509F40DC1823B28
:100C9000910509F40CC1833B910509F40BC1843B18
:100CA000910509F40AC1853B910509F409C1863B08
:100CB000910509F408C1873B910509F407C1883BF8
:100CC000910509F406C1893B910509F405C18A3BE8
:100CD000910509F404C180E094E408958F3F9105E3
:100CE00009F048F4803F910508F075C0883E9105F1
:100CF00008F097CF0895811520E2920708F06DC0A3
:100D00000895811544E59407A8F5811523E5920718
:100D100008F086C0811541E5940710F5811520E59E
:100D2000920708F466C09C0144E0369527954A95E1
:100D3000E1F7922F9370482F437021E030E002C01A
:100D4000220F331F4A95E2F73C68392B869586952A
:100D5000837040E2849FC0011124822B932B08955D
:100D6000811542E5940708F047C0982F8827816FC6
:100D7000906A0895811526E5920758F4382F2227A6
:100D80008115954508F460C0C90188279F7190625C
:100D90000895811528E5920708F443CF811549E5A8
:100DA000940708F455C09C0130562115304208F0D4
:100DB00038CF9F71ECCF805C91090E94E3050895C4
:100DC000853A910509F449C0863A910509F048C071
:100DD00082E890E40895906508959F70EECF9C019D
:100DE000332793FF03C0C901986C0895C901906C23
:100DF00008959F70906A0895AC014370552721E0D3
:100E000030E002C0220F331F4A95E2F7869586959F
:100E100040E2849FC0011124822B932B9C6808958B
:100E2000AC014370552721E030E002C0220F331F90
:100E30004A95E2F78695869540E2849FC001112489
:100E4000822B932B9A680895C901846F906A089544
:100E5000982F8827806F906A089581E890E408951C
:100E600083E890E4089582EE94E4089589EE94E492
:100E700008958AEE94E4089585EB94E4089586EB52
:100E800094E4089583EB94E4089584EB94E4089546
:100E900087EB94E408958CEC94E408958DEC94E44D
:100EA000089583E895E408958AE895E4089582E931
:100EB00095E4089584E995E4089581E296E408951F
:100EC00083E296E4089584E296E4089585E296E448
:100ED000089586E296E4089587E296E408958AE20A
:100EE00096E408CF8238910549F1B0F48133910539
:100EF00009F45AC048F48932910509F450C08A3285
:100F0000910509F456C008958533910509F442C04E
:100F10008933910599F00895833E910521F138F4C4
:100F2000803E910581F0823E9105A1F00895863EB4
:100F3000910501F1873E910531F108952091240238
:100F40002370E1F508952091240220FF12C089E367
:100F500090E008952091240222FF0BC024FF31C0AD
:100F600080E090E008952091240222FD2DC024FD10
:100F7000F7CF08952091240223FFFBCF24FDF0CF6B
:100F800087EE90E008952091240223FFF0CF86EEB3
:100F900090E008952091240225FD19C00895209124
:100FA000240225FD17C008952091240226FD15C0B6
:100FB00008952091240226FD13C0089580EE90E04C
:100FC000089583EE90E0089582EE90E0089589E21E
:100FD00090E0089585E390E008958AE290E0089516
:100FE00081E390E0C6CF08950F931F93CF938C01B8
:100FF000FB018281811106C0C1E08C2FCF911F912E
:101000000F910895C0914B01C11125C005311C45B8
:1010100099F70E94F30781E080934B010E94EA1543
:1010200090934A018093490110923E011092400131
:1010300010923F011092420110924101109244011E
:1010400010924301109246011092450110924801FE
:1010500010924701D2CF8091490190914A010E949C
:10106000F615883C910540F680913E01E82FF0E0AE
:10107000EE0FFF1FE15CFE4F118300838F5F8093B3
:101080003E01C0E0BACF0C9478040C94790485B783
:10109000806885BF85B7806885BFAFE1B1E061E05A
:1010A00070E08D91E82FE295EF70F0E041A18F7034
:1010B0009B0101C0220F8A95EAF7922F9095942305
:1010C00091A382A1822B82A381E0A332B80749F7C2
:1010D000A3E1B1E061E070E08D91E82FE295EF705F
:1010E000F0E041A18F709B0101C0220F8A95EAF7C1
:1010F000922F9095942391A382A1822B82A381E0C9
:10110000AF31B80749F7109255011092540110926F
:101110004D0110924C0110925701109256011092FD
:101120004F0110924E0110925901109258011092E5
:1011300051011092500110925B0110925A011092CD
:101140005301109252010C94C6056F927F929F92A8
:10115000AF92BF92CF92DF92EF92FF920F931F93C5
:10116000CF93DF93CCE4D1E09FE1E92E91E0F92E1B
:1011700001E010E0BB24B394C880D98019821882A2
:10118000D7018D917D01E82FE295EF70F0E091A1FC
:101190008F70980101C0220F8A95EAF7892F822B60
:1011A00081A382A1A22EA0948A2182A3B0EABA953B
:1011B000F1F783E1682E81E0782E80E090E0D301A2
:1011C0007D913D01472F42954F7050E0DA01909696
:1011D0009C90488159817F70D80102C0AA0FBB1F23
:1011E0007A95E2F7BD01692109F067C0B801082EC0
:1011F00002C0660F771F0A94E2F7462B572B5983DC
:10120000488301968C309105D1F681A18A2181A372
:1012100082A1282B22A388819981C816D90641F082
:10122000B0925C010E94EA1590935E0180935D018B
:101230002296B1E0C435DB0709F09ECF80915C01B6
:10124000882351F180915D0190915E010E94F61515
:10125000069710F180914C0190914D0190935501AA
:101260008093540180914E0190914F0190935701CA
:1012700080935601809150019091510190935901B2
:1012800080935801809152019091530190935B019A
:1012900080935A0110925C010E94C80581E0DF91A1
:1012A000CF911F910F91FF90EF90DF90CF90BF9063
:1012B000AF909F907F906F90089560E070E09DCF19
:1012C000E82FF0E0EE0FFF1FEC5AFE4F8081918176
:1012D0000895089590936401809363010895E091C7
:1012E0006301F0916401309721F00190F081E02DCD
:1012F000099480E00895E0916301F09164013097D2
:1013000021F00280F381E02D09940895E0916301BA
:10131000F0916401309721F00480F581E02D09946B
:10132000089520916101309162012817390771F009
:101330009093620180936101E0916301F0916401F7
:10134000309721F00680F781E02D099408952091CF
:101350005F01309160012817390771F090936001A7
:1013600080935F01E0916301F0916401309721F077
:101370000084F185E02D0994089508950C94BD0929
:101380000E94E1150E9447080C94B3165F926F9279
:101390007F928F929F92AF92BF92CF92DF92EF9205
:1013A000FF920F931F93CF93DF93CDB7DEB72A97AA
:1013B0000FB6F894DEBF0FBECDBF0E94A50896E61B
:1013C000A92E91E0B92E00E010E088248394912C9E
:1013D000502E802F0E9460097C01F501C190D190B0
:1013E0005F018C159D05B1F40F5F1F4F043011058F
:1013F00079F78FEF89838A831B820E94EA158160C7
:10140000782F9D838C8349815A816B818D810E94C5
:101410007F0A36C08091F20181FD0E94690980E057
:1014200090E0CE24DF243401082E02C0660C771C25
:101430000A94E2F7960126213721232B09F443C0B1
:101440008E835F82E620F72081E0EF2809F480E0B8
:1014500088870E94EA158160782F9A8789874E8154
:101460005F8168858A850E947F0A000F111FF8013D
:10147000EA59FE4F808191816826792671826082C7
:101480000E9453190E946F0990916501891709F113
:101490000E946F09809365012A960FB6F894DEBF0B
:1014A0000FBECDBFDF91CF911F910F91FF90EF90B5
:1014B000DF90CF90BF90AF909F908F907F906F9074
:1014C0005F900C94CC0501968C30910509F0ABCF60
:1014D0008BCF2A960FB6F894DEBF0FBECDBFDF913B
:1014E000CF911F910F91FF90EF90DF90CF90BF9021
:1014F000AF909F908F907F906F905F900895CF9363
:10150000DF93CDB7DEB72B970FB6F894DEBF0FBED3
:10151000CDBF4F83588769877A878B87DE01119605
:1015200086E0FD0111928A95E9F785E0FE01379684
:1015300001900D928A95E1F749815A816B817C81F6
:101540008D819E810E9417112B960FB6F894DEBFF5
:101550000FBECDBFDF91CF910895882309F4D8C085
:10156000823871F40E946F0981FDD2C089E30E9424
:101570003B140E94FF1489E30E9477140C94FF141B
:10158000833859F40E946F0980FDC2C083E50E9430
:101590003B140E94FF1483E5EFCF843859F40E9476
:1015A0006F0982FDB5C087E40E943B140E94FF14BE
:1015B00087E4E2CF9CEF980F913A18F40E943B1415
:1015C000DDCF90E2980F983050F4877091E001C021
:1015D000990F8A95EAF7892F0E94B614CFCF9BE521
:1015E000980F933070F4853A31F0863A39F083E8F9
:1015F00090E00C94910981E890E0FBCF82E890E0C4
:10160000F8CF98E5980F953108F082C0883A09F430
:1016100040C0893A09F440C08A3A09F440C08B3A84
:1016200009F440C08C3A09F440C08B3B09F440C037
:101630008C3B09F440C08D3A09F440C0803B09F46A
:1016400040C08E3A09F440C08F3A09F440C0813B53
:1016500009F440C0823B09F440C0833B09F440C018
:10166000843B09F440C0853B09F440C0863B09F443
:1016700040C0873B09F440C0883B09F440C0893B27
:1016800009F440C08A3B09F440C080E090E00C942B
:10169000A70982EE90E0FBCF89EE90E0F8CF8AEECA
:1016A00090E0F5CF85EB90E0F2CF86EB90E0EFCFC6
:1016B00083EB90E0ECCF84EB90E0E9CF87EB90E018
:1016C000E6CF8CEC90E0E3CF8DEC90E0E0CF83E8C8
:1016D00091E0DDCF8AE891E0DACF82E991E0D7CFDF
:1016E00084E991E0D4CF81E292E0D1CF83E292E02D
:1016F000CECF84E292E0CBCF85E292E0C8CF86E203
:1017000092E0C5CF87E292E0C2CF8AE292E0BFCFFB
:101710000895882309F44BC0823871F40E946F0940
:1017200081FF45C089E30E943B140E94FF1489E3B6
:101730000E9477140C94FF14833859F40E946F09A7
:1017400080FF35C083E50E943B140E94FF1483E5AF
:10175000EFCF843859F40E946F0982FF28C087E4D4
:101760000E943B140E94FF1487E4E2CF9CEF980F85
:10177000913AF0F290E2980F983050F4877091E02F
:1017800001C0990F8A95EAF7892F0E94BC14D2CF25
:101790009BE5980F933020F480E090E00C94910941
:1017A000885A853120F480E090E00C94A7090895D0
:1017B000882321F00E94B6140C94FF140895882306
:1017C00021F00E94BC140C94FF1408958F929F92F4
:1017D000AF92BF92DF92EF92FF920F931F93CF933E
:1017E000DF937C01D62FC72FFC01058102950F7076
:1017F000128111110E94D5140E943414D82E88230E
:1018000071F0112331F180E28D0F883010F182E008
:101810000E941D140E94341491E0D82ED926EC2F7A
:10182000E295EF708E2F90E0FC01E75EF34F0C9491
:1018300057222B0C2B0C7C0C7C0CBB0CD90C590CA0
:10184000590CE40C590C7F0D7F0DF10D590C590CFE
:10185000FA0DD12CE4CF8C2F807FCF70882311F02C
:10186000C295C07F1123A9F0CC2359F080E28D0FDF
:10187000883010F0D11109C08C2F0E94B6140E943C
:10188000FF148D2F0E94AD0A14C08C2F0E94C71424
:10189000F6CF8D2F0E94890BCC2359F080E28D0F5B
:1018A000883010F0D11124C08C2F0E94BC140E94EB
:1018B000FF14DD2009F4A5C10E94101480FDA1C110
:1018C000F70112820E940A140E94A912C7010E9405
:1018D0000D0E0E940A14DF91CF911F910F91FF907E
:1018E000EF90DF90BF90AF909F908F900C94CA12B2
:1018F0008C2F0E94CD14DBCF8C2F807FCF70803255
:1019000011F0C295C07FDD2369F0D13021F11123A0
:1019100061F1002359F0F701858180FFB2CF8F700C
:10192000858304C0112361F0011104C08C2F0E9433
:10193000D80BBFCF8C2F0130D1F70E94E914B9CF5B
:10194000011106C00E94EC148C2F0E94DF0BB1CF56
:101950000130C1F7AECF112321F0063008F0A9CF36
:10196000E5CF053008F0A5CFEFCF002369F38D2F29
:101970000E94890B9ECF8C2F86958695837059F097
:10198000813009F096CF112389F08D2F9C2F937011
:101990000E94A7098ECF112331F08D2F9C2F9370B9
:1019A0000E94910986CF80E090E0FACF80E090E03D
:1019B000EFCF8D2F112329F00E945C180E94481947
:1019C00078CF0E94C418FACF8C2F837009F048C0DA
:1019D00011116FCF2D2F229526952770220F220FE0
:1019E0006D2F6F70862E912CA12CB12C022E04C06D
:1019F000880C991CAA1CBB1C0A94D2F7D4FF1EC0E9
:101A00006FE070E080E090E004C0660F771F881FF1
:101A1000991F2A95D2F76095709580959095C695F7
:101A2000C695C370C23071F0A0F4682979298A295B
:101A30009B29C13091F00E945F123BCF60E070E0C3
:101A4000CB01EDCF682979298A299B290E9471123F
:101A500030CF0E945F12C501B4010E944D1229CF00
:101A60001123C9F18C2F8170882309F422CF2D2FE7
:101A7000229526952770220F220F6D2F6F70862ECC
:101A8000912CA12CB12C022E04C0880C991CAA1CEC
:101A9000BB1C0A94D2F7D4FF20C06FE070E080E056
:101AA00090E004C0660F771F881F991F2A95D2F710
:101AB0006095709580959095C695C695C370C23017
:101AC00081F0B0F4682979298A299B29C130A1F0D5
:101AD0000E942013EECE8695C7CF60E070E0CB0168
:101AE000EBCF682979298A299B290E943213E1CEFC
:101AF0000E942013C501B4010E940E13DACE8D2F6F
:101B000090E0FC01E05EF109E531F10508F061C00B
:101B1000E457F24F0C945722A10DA10DA10DA10D78
:101B2000A10DA10DA10DA10DA10DA10DA10DA10D45
:101B3000A10DA10DA10DA10DAE0DBC0DC30DCA0DC2
:101B4000D40DDF708C2F8F71112321F00E94A91208
:101B50008D2FEDCE0E94CA128D2FF7CE112341F0AA
:101B6000053008F0A6CE8C2F8F710E94ED12A1CE09
:101B7000063008F09ECEF7CF112339F08C2F8F71ED
:101B80000E94A91296CE1123C9F38C2F8F710E9447
:101B9000CA128FCE112329F08C2F8F710E949412BC
:101BA00088CE0E948F1285CE112349F0CF718C2FE1
:101BB0000E94A91263E08C2F0E9414147ACE81E057
:101BC0000E941D14023008F474CE82E00E941D149D
:101BD00070CE112319F0002389F253CE0023A9F20D
:101BE000C6CE4C2F4F706D2FC7010E9475040E9406
:101BF000C0115FCE4C2F4F706D2FC7010E94CE05D4
:101C000058CEDF91CF911F910F91FF90EF90DF9011
:101C1000BF90AF909F908F9008950F931F93CF9395
:101C2000DF93EC01988189812B813C81232B39F052
:101C30008F3F19F481E09F3F19F080E001C081E0FF
:101C400080FD13C0CE010E948E04882371F068814C
:101C500079818A810E94E7138C010E9444130E94BB
:101C60003B12B801CE010E94E60BDF91CF911F918C
:101C70000F9108950E94D5140E94E6140E94A814A2
:101C80000E94FF140E94F6190E94481980E090E01B
:101C90000E94910980E090E00C94A7090E94C4146E
:101CA0000C943A0E0E94DC13E92FE295EF704E2F50
:101CB00050E0FA013297EE30F105D8F4EE59F14FC9
:101CC0000C945722700E700E790E790E7B0E790EE1
:101CD000790E790E700E700E800E790E790E800ED0
:101CE000803F19F020F4803E20F481E00895843F85
:101CF000E1F380E00895803EC0F3813FD1F7F5CF56
:101D000093FB882780F90895CF93DF9300D000D00C
:101D10001F92CDB7DEB70F900F900F900F900F90DE
:101D2000DF91CF910895CF93DF9300D000D000D002
:101D3000CDB7DEB726960FB6F894DEBF0FBECDBF87
:101D4000DF91CF9108951F93CF93DF93C0916F01DF
:101D500016E080917001C81304C0DF91CF911F91EC
:101D60000895D0E01C9FF0011D9FF00D1124EF5845
:101D7000FE4F4081518162817381848195810E94EF
:101D8000930E2196C770E5CF4091A1015091A20119
:101D90006091A3017091A4018091A5019091A60189
:101DA0000C94930E1F93CF93DF938091A60182959D
:101DB0008F70D1F48091A3018823B1F080916F01DD
:101DC000D0917001B091A101C091A2014091A401F4
:101DD0005091A501A1E0BF3F09F0A0E0BA016095D4
:101DE000709516E08D1304C0DF91CF911F91089577
:101DF00041155105D9F1CF3FD9F120E090E020FD08
:101E00003CC0189FF001199FF00D1124EF58FE4FB0
:101E100021812C1332C020812B132FC0228121114C
:101E20002CC0238134812417350720F1241B350B66
:101E3000283C310510F52091A6012F7020612093D8
:101E4000A60126E0289FF001299FF00D1124EA58F1
:101E5000FE4F80818F708061808381EA91E00E94D3
:101E60000D0EDF91CF911F910C94A30E21E0C6CFF0
:101E70002A2FC4CF260F371FDBCF01968770B2CF32
:101E8000AF92BF92CF92DF92EF92FF920F931F9388
:101E9000CF93DF93CDB7DEB761970FB6F894DEBF6F
:101EA0000FBECDBF8C0185E0F801DE011D960190CB
:101EB0000D928A95E1F7D8014C9111965C9111979A
:101EC0001296EC903091A1016091A2018091A40141
:101ED0009091A501009739F06F3F19F421E03F3F41
:101EE00019F020E001C021E0B22FB170BB2E20FD1F
:101EF00090C1F801C380D480A090A301AA2009F466
:101F000032C12091A601C816D90610F1D601A81B2E
:101F1000B90BCD01FF24F394883C9105F0F0F12C2E
:101F2000207F09F0E9C07C2DD98AC88A6E2D898965
:101F30000E94840E81EA91E00E940D0EE1EAF1E038
:101F400086E0DF011D928A95E9F70E94C40E1EC04B
:101F5000809590958C0D9D1DDDCF822F807F09F09F
:101F600084C0651325C0341323C0FE2CE11020C0AB
:101F70002F7020612093A6010E94C40E81EA91E097
:101F80000E940D0E8091A601F80185838F2D619628
:101F90000FB6F894DEBF0FBECDBFDF91CF911F917A
:101FA0000F91FF90EF90DF90CF90BF90AF9008958A
:101FB000CD2839F05F3F19F481E04F3F19F080E000
:101FC00001C081E080FD24C081E08E25F82FF170F2
:101FD000FF2E80FF3FC080916F012091700136E09D
:101FE000821318C04D875E878D859E850E94DC1305
:101FF000292F22952F70223008F1243030F59F7060
:1020000009F1D80115969C91907FE1F4FB2CBECF8D
:1020100080E0DCCF90E0389FF001399FF00D112473
:10202000EF58FE4F6181561306C06081641303C0F0
:102030006281E6120FC001968770D2CF9F7011F0B7
:10204000882321F3805E883008F3C8010E940D0EBA
:10205000BF2CDCCFFE2CEE2009F498CF8091A60196
:1020600081608093A601F12C91CF651314C03413C5
:1020700012C0E11010C08091A601F8018583C8014B
:102080000E940D0E86E0F801A1EAB1E001900D92E8
:102090008A95E1F75ACF4D875E878D859E850E9490
:1020A000520E882309F4BFC0EE2009F4BCC0209171
:1020B000A601822F82958F7090E0029774F0809134
:1020C000A1019091A20198878F831986DB86CA8629
:1020D0002C87CE0107960E940D0E86E0F801A1EA3A
:1020E000B1E001900D928A95E1F70E94D20E0E9414
:1020F000C40EFF24F3944ACF651314C0341312C0E6
:10210000E11010C08091A601F8018583C8010E94EA
:102110000D0E86E0E1EAF1E0DF011D928A95E9F714
:10212000FA2C34CF4D875E878D859E850E94520E96
:10213000882309F478C0EE2009F475C02091A60127
:10214000822F82958F7090E002973CF28091A101DE
:102150009091A2019A8389831B82DD82CC822E8397
:10216000CE010196B8CFC816D90680F0F601E81B5B
:10217000F90BCF01883C910570F0F12C7C2DD98AA8
:10218000C88A6E2D89890E94840ED8CE809590953C
:102190008C0D9D1DEFCFFE2CEE2009F444C065137D
:1021A00027C0341325C08091A60180FD18C0982F48
:1021B00092959F70292F30E02115310581F0D801CB
:1021C00015968C9315972F30310509F458CF9F5FE2
:1021D0009295907F8F70892B15968C9350CF86E0C7
:1021E000F801A1EAB1E001900D928A95E1F7CECE17
:1021F0004D875E878D859E850E94520E81116DCF21
:102200008091A60181608093A601C8010E940D0EF5
:10221000BDCEEE2041F04D875E878D859E850E9464
:10222000520E81115ACFC8010E940D0E62CF1F932A
:10223000CF93DF93CDB7DEB72C970FB6F894DEBF00
:102240000FBECDBF4F83588769877A878B879C875E
:10225000CE0107960E94400F882349F19F8188850F
:102260002A853B85232B39F08F3F19F481E09F3F6E
:1022700019F080E001C081E080FD08C04F815885E1
:1022800069857A858B859C850E94930E16E08091E6
:102290006F0190917001891343C02C960FB6F8948A
:1022A000DEBF0FBECDBFDF91CF911F91089586E0B5
:1022B000FE013796DE01119601900D928A95E1F7A5
:1022C0009F8188852A853B85232B39F08F3F19F420
:1022D00081E09F3F19F080E001C081E080FDD6CF12
:1022E0002091700130E0C9010196877099274091D3
:1022F0006F0150E084179507A9F196E0929FD001F5
:10230000939FB00D1124AF58BE4FFE01319601903E
:102310000D929A95E1F7809370010E94A30EB6CFBB
:10232000819FC00111248F589E4F0E94400F882327
:1023300009F4B3CFE0916F011E9FF0011124EF5813
:10234000FE4F4081518162817381848195810E9419
:10235000930E80916F0190E001968770992780938A
:102360006F0195CF0E944E0E1092700110926F0176
:10237000E1EAF1E086E0DF011D928A95E9F78DCF71
:10238000EF92FF920F931F93CF93DF938C01892BD2
:1023900081F0F12CEE24E394E8012196F801849178
:1023A000843770F4843008F062C08130B1F082303C
:1023B000B1F1DF91CF911F910F91FF90EF900895B0
:1023C000853709F44FC008F43FC09CE7980F903759
:1023D00080F78F770E94890B4CC00E5F1F4FFE0164
:1023E000849190E2980F983060F48770FE2D01C0C0
:1023F000FF0F8A95EAF78F2F0E94D8140E94FF14CE
:1024000002C00E94AD0A8F2D882309F4C5CFEFE9E1
:10241000FFE03197F1F700C000008150F5CF0E5F6B
:102420001F4FFE01849190E2980F983050F487700E
:10243000FE2D01C0FF0F8A95EAF78F2F0E94DE1450
:10244000DDCF0E94890BDFCF0E5F1F4FFE01C491CD
:10245000CC23C9F28FE99FE00197F1F700C000009B
:10246000C150F6CF0E5F1F4FFE01F490CCCF0E94FB
:10247000AD0A8E01C8CF089508950C943C120E94B5
:102480003D126093C9017093CA018093CB01909370
:10249000CC010C943A0E0C943F120F931F930091B1
:1024A000C9011091CA012091CB013091CC01602B60
:1024B000712B822B932B1F910F910C943F120F9332
:1024C0001F930091C9011091CA012091CB01309155
:1024D000CC0160237123822393231F910F910C94CD
:1024E0003F120F931F930091C9011091CA012091CF
:1024F000CB013091CC0160277127822793271F9150
:102500000F910C943F120E943C126093C50170938E
:10251000C6018093C7019093C8010C943A0E60E005
:1025200070E0CB010C9483120F931F9341E050E0B5
:1025300060E070E08A019B0104C0000F111F221FA0
:10254000331F8A95D2F7C901B8011F910F910C94DE
:1025500083120F931F9341E050E060E070E004C0ED
:10256000440F551F661F771F8A95D2F78091C501CA
:102570009091C601A091C701B091C8018A019B0149
:10258000082B192B2A2B3B2BC901B8011F910F9146
:102590000C9483120F931F9341E050E060E070E0D1
:1025A00004C0440F551F661F771F8A95D2F7CB01D1
:1025B000BA0160957095809590950091C501109134
:1025C000C6012091C7013091C80160237123822385
:1025D00093231F910F910C9483120F931F9341E04B
:1025E00050E060E070E004C0440F551F661F771F85
:1025F0008A95D2F78091C5019091C601A091C7013B
:10260000B091C8018A019B01082719272A273B2777
:10261000C901B8011F910F910C9483120F931F935E
:102620000091C5011091C6012091C7013091C801E8
:10263000602B712B822B932B1F910F910C94831283
:102640000F931F930091C5011091C6012091C701FE
:102650003091C80160237123822393231F910F912E
:102660000C9483120F931F930091C5011091C60122
:102670002091C7013091C8016027712782279327D5
:102680001F910F910C94831208952CE0929F800D5E
:102690001124982F977041E001C0440F9A95EAF7F2
:1026A00086958695869595E0899FF0011124E955D8
:1026B000FE4F80E090E070E050819B01082E02C048
:1026C000369527950A94E2F7217021952527242332
:1026D0002527219301968530910571F708952CE007
:1026E000929F800D1124982F9770869586958695D8
:1026F00025E0829FA001112460E070E080E0FA01F3
:10270000E60FF71FE955FE4F208130E0092E02C089
:10271000369527950A94E2F721703327062E01C0DB
:10272000220F0A94EAF7822B6F5F7F4F65307105A5
:1027300031F70895BF92CF92DF92EF92FF920F93FD
:102740001F93CF93DF938C01C090C501D090C60139
:10275000E090C701F090C8018091C9019091CA0131
:10276000A091CB01B091CC01C82AD92AEA2AFB2A30
:10277000CFE1D0E0BC2ED701C6010C2E04C0B69527
:10278000A795979587950A94D2F780FD0EC021975B
:1027900088F7B12C8B2DDF91CF911F910F91FF9076
:1027A000EF90DF90CF90BF900895B8018C2F0E94DA
:1027B000EB05019761F3EECFCF93DF93EC010E941D
:1027C0009A13BE010E94EB05DF91CF9108951F93EC
:1027D000CF93DF93EB0190916E01992339F0CB01F8
:1027E0000E94DC13DF91CF911F910895882369F037
:1027F000CB010E949A13182F682FCE010E94451317
:10280000BE01812F0E94EB05EDCFCB010E946F131B
:10281000182FF6CF8091CD018595859585950895E2
:102820008091CD018770089598E0899F90011124CF
:10283000622B6093CD010C94A9122091CD0180955B
:1028400082238093CD01982F977069F430E0482F50
:10285000082E000C550B2417350729F08595859512
:1028600085950C94CA1208959091CD01977081E0DE
:1028700009F480E00895909112019923D9F0909184
:10288000240297FF17C0982F9695969596959F319D
:1028900031F1E0910001F0910101E90FF11D877024
:1028A00021E030E001C0220F8A95EAF78181822B76
:1028B000818308952091000130910101F901329640
:1028C0009FEF40E05191851751F09F3F19F451114E
:1028D00001C0942F4F5F4E31A9F79F3F09F408952F
:1028E000290F311D97FD3A95F90182830895909142
:1028F00012019923E9F09091240297FF19C0982FB3
:102900009695969596959F3111F1E0910001F09181
:102910000101E90FF11D282F277081E090E001C02F
:10292000880F2A95EAF780959181892381830895FC
:10293000E0910001F09101019F01225E3F4F9281E1
:10294000891301C012823196E217F307C1F7089587
:1029500081E090E0E0910001F0910101E80FF91FA2
:102960001082019680329105A9F708959091F101A6
:10297000892B8093F1010895982F90958091F10112
:1029800089238093F10108951092F10108959091A7
:10299000F001892B8093F0010895982F90958091F4
:1029A000F00189238093F00108951092F0010895B9
:1029B0009091EF01892B8093EF010895982F9095C6
:1029C0008091EF0189238093EF0108951092EF0128
:1029D00008958093CE0108951092CE01089520911C
:1029E000000130910101F9013196205E3F4F80E0F6
:1029F000919191118F5FE217F307D1F70895E0915C
:102A00000001F09101018091F1018083E0910001CA
:102A1000F091010180819091F001892B8083E091F8
:102A20000001F091010180819091EF01892B808359
:102A30009091CE01992361F0E0910001F0910101A4
:102A40008081892B80830E94EF1481111092CE0126
:102A500080910001909101010C947B096DEE7EEF55
:102A600080E090E00E94912260E082E090E00E948D
:102A70007F2260E083E090E00E947F2260E084E0BB
:102A800090E00E947F2260E085E090E00C947F223D
:102A900080E090E00E94792221E08D3E9E4F09F077
:102AA00020E0822F089582E090E00C947122682F3C
:102AB00082E090E00C947F2283E090E00C947122FD
:102AC000682F83E090E00C947F2284E090E00C94E7
:102AD0007122682F84E090E00C947F2280912A027A
:102AE000843039F11092F30120E488E190E00FB6D0
:102AF000F894A895809360000FBE2093600080E05A
:102B00000E94CC0583B7817F846083BF83B78160D7
:102B100083BF7894889583B78E7F83BF0FB6F89470
:102B2000A895809160008861809360001092600099
:102B30000FBE089508950C949A15CF930E949B158B
:102B40000E94A5080E949A15C0E08C2F0E9460097F
:102B5000892B31F4CF5FC430C1F780E0CF91089565
:102B600081E0FCCF0E944E0E0E946F090C94CC05B0
:102B70001F920F920FB60F9211248F939F93AF93D2
:102B8000BF938091F301811113C080912002909135
:102B90002102A0912202B09123024196A11DB11DF4
:102BA0008093200290932102A0932202B0932302EB
:102BB000BF91AF919F918F910F900FBE0F901F907B
:102BC000189582E084BD93E095BD9AEF97BD809300
:102BD0006E0008952FB7F894809120029091210201
:102BE000A0912202B09123022FBF0895CF92DF92CD
:102BF000EF92FF920F931F932FB7F894409120020A
:102C00005091210260912202709123022FBF6A012C
:102C10007B01EE24FF248C0120E030E0C016D106B9
:102C2000E206F30650F0481B590BCA011F910F91A1
:102C3000FF90EF90DF90CF90089541505109F3CF6E
:102C400078941F920F920FB60F9211248F939F9337
:102C5000AF93BF938091200290912102A091220214
:102C6000B09123020196A11DB11D80932002909383
:102C70002102A0932202B0932302BF91AF919F91B2
:102C80008F910F900FBE0F901F9018950E94141EE9
:102C9000F8942FEF87EA91E6215080409040E1F7C9
:102CA00000C0000087E090EBDC018093330290933A
:102CB0003402A0933502B09336029CE088E10FB64F
:102CC000F894A895809360000FBE90936000FFCFAA
:102CD000AF92BF92CF92DF92EF92FF920F931F932A
:102CE000CF93C0E0CC24C394D12CE82EF12C8C2FB0
:102CF0000E9460095C0100E010E0C601002E02C0E5
:102D0000880F991F0A94E2F78A219B21892B99F455
:102D10000F5F1F4F0C30110581F7CF5FC43039F7BB
:102D200080E0CF911F910F91FF90EF90DF90CF90B7
:102D3000BF90AF900895602F7C2F80E00E94CF0558
:102D4000E816F90629F781E0ECCFCF93C82F8CE283
:102D50000E946816882321F08C2FCF910C9468165E
:102D600080E0CF910895CF930E944815811102C051
:102D70000E942E15C5E6C15009F0E9C089E20E9403
:102D8000A516811118C18AE20E94A51681110E9420
:102D90002E1585E00E94A51681110E9446160E94FC
:102DA00053158093F20187E00E94A516882389F0CD
:102DB0008BE10E94A516882309F4D2C08091F2010C
:102DC00081FB992790F921E0922790FB81F980936C
:102DD000F2018091F2010E9457150E94651590E062
:102DE000909325028093240280EE0E94A5168823EA
:102DF00041F080912402982F909590FB80F9809368
:102E0000240289E30E94A516882359F080912402A8
:102E100081FB992790F921E0922790FB81F980931B
:102E2000240282EE0E94A516882359F08091240284
:102E300082FB992790F921E0922790FB82F98093F9
:102E4000240286EE0E94A516882359F08091240260
:102E500083FB992790F921E0922790FB83F98093D7
:102E6000240283EE0E94A516882359F08091240243
:102E700084FB992790F921E0922790FB84F98093B5
:102E8000240285E30E94A516882359F0809124022C
:102E900085FB992790F921E0922790FB85F9809393
:102EA000240281E30E94A516882359F08091240210
:102EB00086FB992790F921E0922790FB86F9809371
:102EC000240281E10E94A516882359F080912402F2
:102ED00087FB992790F921E0922790FB87F980934F
:102EE0002402809124020E94691587E20E94A5169F
:102EF000C82F8EE10E94A5168111C2608FE10E9449
:102F0000A5168111C46080E20E94A5168111C860D7
:102F100081E20E94A5168111C06182E20E94A5167D
:102F20008111C06283E20E94A5168111C06484E20F
:102F30000E94A5168823C9F1C0688C2F0E946015D5
:102F40006C2F70E080E090E0CF910C944B120E94C7
:102F5000A5088FE39CE90197F1F700C000000BCFB3
:102F60008EE00E94A516882351F08091F20182FB29
:102F7000992790F921E0922790FB82F928CF80E1F0
:102F80000E94A5169091F201882351F093FB8827A7
:102F900080F921E0822780FB93F99093F20119CF09
:102FA000892F809580FB90F9F8CFC111C6CF0E9480
:102FB0005C15682FC6CFCF9108958091F60180FFF0
:102FC00012C06091050185E0689FB00111247595DC
:102FD00067957595679560387105A8F56115710558
:102FE00081F581E0089581FF09C06091050185E0C8
:102FF000689FB001112475956795EDCF82FF07C0DA
:103000006091050185E0689FB0011124E4CF9091A3
:10301000F7019923A1F060910401961788F7209198
:10302000050185E0289F90011124929FA001939FA4
:10303000500D112470E0CA010E944322CCCF65E0FC
:1030400070E0862F08958FE708958091F60180FF44
:103050000CC06091030170E0759567957595679553
:103060006115710539F581E0089581FF06C0609111
:10307000030170E075956795F3CF82FF08C06091FA
:10308000030170E06038710558F38FE7089580916F
:10309000F701882369F060910201861780F790910B
:1030A0000301899FC001112470E00E944322EACFEE
:1030B00061E070E0862F0895803F31F40E94DD17B3
:1030C00081958093FA010895813F19F40E94DD17DC
:1030D000F8CF823F31F40E94DD1781958093F9018A
:1030E0000895833F19F40E94DD17F8CF893F29F432
:1030F0000E9425188093FB0108958A3F21F40E94C5
:1031000025188195F7CF8B3F31F40E9425188195C2
:103110008093FC0108958C3F19F40E942518F8CF84
:10312000843F31F48091F80181608093F801089523
:10313000853F21F48091F8018260F7CF863F21F42A
:103140008091F8018460F1CF873F21F48091F801EC
:103150008860EBCF883F21F48091F8018061E5CF52
:103160008D3F31F48091F60181608093F6010895DE
:103170008E3F21F48091F6018260F7CF8F3FB9F73F
:103180008091F6018460F1CF803FC1F48091FA0113
:1031900087FD1092FA018091F90181110EC0809192
:1031A000FA0181110AC08091FB01811106C0809152
:1031B000FC01811102C01092F7010895813F29F4AA
:1031C0008091FA0118162CF3E6CF9091F901823F15
:1031D00029F497FFE0CF1092F901DDCF833F19F476
:1031E0001916CCF3D8CF893F39F48091FB0118161A
:1031F00094F61092FB01CFCF8A3F29F48091FB0116
:1032000087FFC9CFF6CF8B3F39F48091FC0187FF50
:10321000C2CF1092FC01BFCF8C3F29F48091FC01FA
:103220001816BCF3B8CF843F31F48091F8018E7F3B
:103230008093F801B0CF853F21F48091F8018D7F14
:10324000F7CF863F21F48091F8018B7FF1CF873F44
:1032500021F48091F801877FEBCF883F21F48091A2
:10326000F8018F7EE5CF8D3F31F48091F6018E7F9E
:103270008093F60190CF8E3F21F48091F6018D7FEF
:10328000F7CF8F3F09F087CF8091F6018B7FF0CF8A
:1032900088EF91E00E9486090E94EA159093F5015B
:1032A0008093F40108951F93CF93DF938091F401ED
:1032B0009091F5010E94F615AC019091F7019923C8
:1032C000D1F02091060130E04217530780F0809141
:1032D000F901C091FA01D091FB011091FC0181111B
:1032E00011C0C1117FC0D1117DC011117BC0DF9110
:1032F000CF911F910895209107018AE0289F9001A6
:103300001124E2CF9F3F19F09F5F9093F7011816A9
:1033100024F40E94DD178093F9018091F90187FF61
:1033200005C00E94DD1781958093F9011C1624F4D5
:103330000E94DD178093FA018091FA0187FF05C092
:103340000E94DD1781958093FA016091F90166234F
:1033500031F1C091FA01CC2311F1062E000C770B4C
:10336000880B990B0E944A2123E333E343E35FE395
:103370000E94AE210E9412216093F9016C2FCC0FA4
:10338000770B880B990B0E944A2123E333E343E335
:103390005FE30E94AE210E9412216093FA011D1684
:1033A00024F40E9425188093FB018091FB0187FF84
:1033B00005C00E94251881958093FB01111624F405
:1033C0000E9425188093FC018091FC0187FF05C0B5
:1033D0000E94251881958093FC01DF91CF911F9168
:1033E0000C9448199F3F09F08FCFA0CFE8EFF1E090
:1033F00085E0DF011D928A95E9F71092F70110929E
:10340000F601089580911D0208950F931F93CF93A5
:10341000DF9300D01F92CDB7DEB78C010E946A1CEB
:10342000823011F0843019F583E089831B830A838D
:103430008093E9008FEF9091E800815095FD06C0E0
:1034400095ED9A95F1F700008111F5CF8091E80094
:1034500085FF0DC040E050E063E070E0CE010196D2
:103460000E94871C8091E8008E778093E8000F907F
:103470000F900F90DF91CF911F910F910895CF93EF
:10348000DF9300D01F92CDB7DEB720912A022430FF
:1034900031F522E02983805891099B838A8383E058
:1034A0008093E9008FEF9091E800815095FD06C070
:1034B00095ED9A95F1F700008111F5CF8091E80024
:1034C00085FF0DC040E050E063E070E0CE01019662
:1034D0000E94871C8091E8008E778093E8000F900F
:1034E0000F900F90DF91CF910895CF93DF93EC0170
:1034F0000E946A1C823011F08430F9F482E08093DB
:10350000E9008FEF9091E800815095FD06C095EDA0
:103510009A95F1F700008111F5CF8091E80085FFC1
:103520000CC040E050E065E070E0CE010E94871CD6
:103530008091E8008E778093E800DF91CF91089525
:10354000CF93DF93EC010E946A1C823011F084302B
:1035500079F580911201882371F18091240287FF0F
:103560002AC084E08093E9008FEF9091E8008150B9
:1035700095FD06C095E19A95F1F700008111F5CF10
:103580008091E80085FF14C040E050E060E270E008
:10359000CE010E94871C8091E8008E778093E8001E
:1035A00080E2FE01ADEFB1E001900D928A95E1F766
:1035B000DF91CF91089581E08093E9008FEF9091A2
:1035C000E800815095FD06C095ED9A95F1F7000051
:1035D0008111F5CF8091E80085FFEACF40E050E00F
:1035E00068E070E0D5CF80912902811109C00E9466
:1035F000141E0E94711E8091E20084608093E2009C
:103600000895109229020895089508950C94B21512
:1036100042E061EC81E00E94911D42E061EC82E0B9
:103620000E94911D42E061EC83E00E94911D42E204
:1036300061EC84E00C94911D80912C02833009F49C
:1036400055C030F4813071F1823009F491C0089591
:103650008A3009F47DC08B3009F463C0893009F0E9
:1036600044C080912B02813209F03FC080912F022B
:1036700090913002009711F00397B9F58091E8001E
:10368000877F8093E8008091E80082FF2AC08091C4
:10369000F10080931D028091E8008B778093E80011
:1036A0000C94C61D80912B02813AF9F48091E800B8
:1036B000877F8093E80080912F0290913002892BC0
:1036C00061F460E28DEF91E070E00E94D61C809181
:1036D000E8008B778093E800089560E080E090E058
:1036E000F3CF80912A028111CECF089580912B02D1
:1036F000813AD9F780912F0290913002892BA9F756
:103700008091E800877F8093E8008091E80080FF47
:10371000FCCF809112018093F1008091E8008E77B8
:10372000BDCF80912B02813201F780912F029091C1
:103730003002892BD1F68091E800877F8093E800E2
:103740000E94C61D80912D02809312010C944E0E92
:1037500080912B02813249F68091E800877F809327
:10376000E8000E94C61D80912E0280931E020895DB
:1037700080912B02813A09F0B8CF8091E800877FD1
:103780008093E8008091E80080FFFCCF80911E02CA
:10379000C2CF84B7877F84BF0FB6F894A895809175
:1037A0006000886180936000109260000FBE80E826
:1037B00080936100109261000E94BE090E94141E55
:1037C0000E94711E8091E20084608093E2007894F0
:1037D0000E94F6200E94C00988E091E00E946A09D8
:1037E00080912A02853019F00E94C609F9CF0E9403
:1037F0006E1580912802882399F30E949D158823D5
:1038000079F30E94711CECCF292F33272330310527
:1038100079F158F421303105F1F02230310519F1F8
:1038200080E090E020E030E01AC02132310599F1CB
:1038300022323105A9F7643098F770E0FB01EE0FF2
:10384000FF1FE95DFE4F208131816D5D7E4FFB01E1
:10385000808190E004C082E190E029E437E0FA0141
:103860003183208308958DE690E02CED36E0F7CF8C
:1038700099278130910561F028F0029789F6ECEAEA
:10388000F6E002C0E8EDF6E0849190E09F01E7CF1A
:10389000E0ECF6E0F9CF643008F0C2CFE62FF0E0BC
:1038A000EE0FFF1FE15DFE4F2081318189E090E046
:1038B000D6CF0895CF93C82F0E94591CC0931F02E2
:1038C000CF91089580912A02843011F081E008950B
:1038D00082E0089580911F02811102C00C94621C45
:1038E000089580E189BD82E189BD09B400FEFDCF64
:1038F0008091D8008F7D8093D8008091E000826015
:103900008093E0008091E00081FDFCCF0895AF92AC
:10391000BF92DF92EF92FF920F931F93CF93DF93AB
:10392000EC018B017A010E94E51DD82E811124C083
:10393000E114F10439F0F70180819181081B190B22
:10394000C80FD91FA12CB12C01151105A9F0809128
:10395000E80085FD22C08091E8008E778093E80022
:10396000E114F104A1F0F70180819181A80EB91E44
:10397000B182A08285E0D82E8D2DDF91CF911F914D
:103980000F91FF90EF90DF90BF90AF9008950E944D
:10399000E51D8823C9F2D82EEFCF89918093F100DD
:1039A00001501109FFEFAF1ABF0ACECF20913102AB
:1039B0003091320226173707A8F06115710529F4F6
:1039C0002091E8002E772093E800FC0120E06115AB
:1039D000710551F4211108C08091E80082FF33C0C5
:1039E00080E00895B901F1CF80912A028823B9F1CE
:1039F0008530B9F18091E80083FD2FC08091E80007
:103A000082FDEACF8091E80080FFE1CF2091F300B2
:103A10008091F20090E0922B6115710519F08830C9
:103A2000910550F021E0089709F020E08091E8002E
:103A30008E778093E800CBCF21912093F1006150E5
:103A400071090196E9CF80912A02882341F08530DF
:103A500041F08091E80083FFBFCF81E0089582E0CC
:103A6000089583E0089520913102309132022617A3
:103A70003707A8F06115710529F42091E8002E7729
:103A80002093E800FC0120E06115710551F421113B
:103A900008C08091E80082FF34C080E00895B90139
:103AA000F1CF80912A028823C1F18530C1F1809144
:103AB000E80083FD30C08091E80082FDEACF80916C
:103AC000E80080FFE1CF2091F3008091F20090E0C8
:103AD000922B6115710519F08830910550F021E0A5
:103AE000089709F020E08091E8008E778093E80045
:103AF000CBCF24912093F10031966150710901964A
:103B0000E8CF80912A02882341F0853041F08091EE
:103B1000E80083FFBECF81E0089582E0089583E04E
:103B20000895982F973028F08F708093E90081E0F6
:103B300008959093E900981751F07091EC0020914E
:103B4000ED005091F00021FD06C09F5FEBCF242FC8
:103B5000762F50E0F8CF3091EB003E7F3093EB00B2
:103B60003091ED003D7F3093ED003091EB003160FE
:103B70003093EB007093EC002093ED005093F00035
:103B80002091EE0027FDE1CF80E0089580912B0287
:103B900087FF13C08091E80082FF06C08091E80093
:103BA0008B778093E80004C080912A028111F2CFC4
:103BB000089580912A028823D9F38091E80080FF3C
:103BC000F8CF8091E8008E77ECCF2091E40030911F
:103BD000E50085E69091EC0090FD20C09091E80012
:103BE00092FD20C090912A02992391F0953091F096
:103BF0009091EB0095FD10C04091E4005091E500DC
:103C00004217530739F381509A0121F784E0089550
:103C100082E0089583E0089581E008959091E8009E
:103C200090FFE0CF80E008950E94821E0E948A1ECD
:103C3000E0EEF0E0808181608083E8EDF0E080815B
:103C40008F77808319BCA7EDB0E08C918E7F8C9329
:103C500080818F7E80831092290208950F931F9395
:103C6000CF93DF930E94821E0E948A1EC8EDD0E08F
:103C700088818F77888388818068888388818F7D19
:103C8000888319BC10922A021092260210922802F0
:103C90001092270200EE10E0F80180818B7F808374
:103CA00088818160888342E060E080E00E94911D0D
:103CB000E1EEF0E080818E7F8083E2EEF0E08081B3
:103CC00081608083808188608083F80180818E7F1D
:103CD0008083888180618883DF91CF911F910F91CC
:103CE0000895E8EDF0E080818F7E8083E7EDF0E0DD
:103CF00080818160808384E082BF81E0809329029B
:103D00000C942E1EE8EDF0E080818E7F808310926F
:103D1000E20008951092DA001092E10008951F92D7
:103D20000F920FB60F9211242F933F934F935F93EF
:103D30006F937F938F939F93AF93BF93EF93FF9373
:103D40008091E10082FF0BC08091E20082FF07C0FA
:103D50008091E1008B7F8093E1000E94F5208091AB
:103D6000DA0080FF19C08091D80080FF15C08091D3
:103D7000DA008E7F8093DA008091D90080FF94C0B2
:103D800080E189BD82E189BD09B400FEFDCF81E0FB
:103D900080932A020E94F31A8091E10080FF19C0EB
:103DA0008091E20080FF15C08091E2008E7F8093B9
:103DB000E2008091E20080618093E2008091D8006F
:103DC00080628093D80019BC85E080932A020E940B
:103DD000051B8091E10084FF29C08091E20084FFEF
:103DE00025C080E189BD82E189BD09B400FEFDCF17
:103DF0008091D8008F7D8093D8008091E1008F7EE4
:103E00008093E1008091E2008F7E8093E2008091B8
:103E1000E20081608093E20080912602882309F409
:103E200049C084E080932A020E94061B8091E10031
:103E300083FF29C08091E20083FF25C08091E100CB
:103E4000877F8093E10082E080932A02109226020D
:103E50008091E1008E7F8093E1008091E2008E7F6F
:103E60008093E2008091E20080618093E20042E072
:103E700060E080E00E94911D8091F0008860809356
:103E8000F0000E94041BFF91EF91BF91AF919F91B1
:103E90008F917F916F915F914F913F912F910F90F3
:103EA0000FBE0F901F90189519BC10922A020E9405
:103EB000011B72CF8091E30087FD02C081E0B2CF89
:103EC00083E0B0CF1F920F920FB60F9211242F9361
:103ED0003F934F935F936F937F938F939F93AF9392
:103EE000BF93CF93EF93FF93C091E900CF70809180
:103EF000EC001092E9008091F000877F8093F00041
:103F000078940E949E1F1092E9008091F0008860D2
:103F10008093F000C093E900FF91EF91CF91BF91A2
:103F2000AF919F918F917F916F915F914F913F9151
:103F30002F910F900FBE0F901F9018951F93CF9346
:103F4000DF93CDB7DEB7AA970FB6F894DEBF0FBEEA
:103F5000CDBFEBE2F2E08091F100819322E0E33308
:103F6000F207C9F70E941C1B8091E80083FF44C040
:103F700080912B0290912C02492F50E04A3051053C
:103F800008F03AC0FA01E953F04E0C945722D11FC1
:103F9000F51FFC1FF51FFC1F50207320FC1FC820BD
:103FA000D520803879F0823839F580912F028F70D2
:103FB0008093E9008091EB0085FB882780F91092BF
:103FC000E90006C080912702909128029111826039
:103FD0009091E800977F9093E8008093F100109211
:103FE000F1008091E8008E772DC0282F2D7F21F4DD
:103FF0008823D1F0823059F18091E80083FF0AC014
:104000008091E800877F8093E8008091EB008062D8
:104010008093EB00AA960FB6F894DEBF0FBECDBF1B
:10402000DF91CF911F91089580912D02813021F76A
:10403000933009F080E0809328021092E90080918B
:10404000E800877F8093E8000E94C61DD5CF80914D
:104050002D028111F2CF80912F028F7069F280932F
:10406000E9002091EB0020FFE8CF933031F48091FC
:10407000EB0080628093EB00E0CF9091EB009061C9
:104080009093EB0021E030E001C0220F8A95EAF71F
:104090002093EA001092EA008091EB008860EACF5A
:1040A0008111AACF10912D021F778091E3008078B3
:1040B000812B8093E3008091E800877F8093E80064
:1040C0000E94C61D8091E80080FFFCCF8091E30034
:1040D00080688093E300111104C082E080932A027B
:1040E0008BCF83E0FBCF8058823008F085CF809162
:1040F0002D0290912E028C3D23E09207A1F583E0E2
:104100008A838AE289834FB7F894DE01139620E010
:104110003EE051E2E32FF0E050935700E49120FF9E
:1041200003C0E295EF703F5FEF708E2F90E0EA30B2
:10413000C0F0C7968D939D932F5F243159F74FBFE1
:104140008091E800877F8093E8006AE270E0CE010A
:1041500001960E94D61C8091E8008B778093E8003E
:104160004BCFC096E7CFAE014F5F5F4F60912F02FC
:104170000E94041CBC01892B09F43ECF9091E800F9
:10418000977F9093E80089819A810E94331DE3CF45
:10419000803809F031CF8091E800877F8093E80074
:1041A000809126028093F1001CCF811125CF909140
:1041B0002D02923008F020CF8091E800877F809315
:1041C000E800909326020E94C61D80912602882353
:1041D00011F084E005C08091E30087FDFACF81E013
:1041E00080932A020E94081B07CF0895CF938091E5
:1041F0002A02882399F0C091E900CF708091EC00E9
:1042000080FD0EC080E0C82B1092E9008091E8008C
:1042100083FD0E949E1FCF70C093E900CF91089547
:1042200080E8F1CF0E9419216894B1110C94A82163
:1042300008950E948D2188F09F5798F0B92F9927F3
:10424000B751B0F0E1F0660F771F881F991F1AF081
:10425000BA95C9F714C0B13091F00E94A721B1E01E
:1042600008950C94A721672F782F8827B85F39F01D
:10427000B93FCCF3869577956795B395D9F73EF41A
:1042800090958095709561957F4F8F4F9F4F0895C2
:10429000E89409C097FB3EF49095809570956195E0
:1042A0007F4F8F4F9F4F9923A9F0F92F96E9BB2796
:1042B0009395F695879577956795B795F111F8CF12
:1042C000FAF4BB0F11F460FF1BC06F5F7F4F8F4F7D
:1042D0009F4F16C0882311F096E911C0772321F073
:1042E0009EE8872F762F05C0662371F096E8862F0B
:1042F00070E060E02AF09A95660F771F881FDAF762
:10430000880F9695879597F9089557FD9058440F13
:10431000551F59F05F3F71F04795880F97FB991F24
:1043200061F09F3F79F087950895121613061406E1
:10433000551FF2CF4695F1DF08C01616170618066E
:10434000991FF1CF86957105610508940895E89449
:10435000BB2766277727CB0197F908950E94C121D3
:104360000C9432220E94242238F00E942B2220F04A
:10437000952311F00C941B220C94212211240C94EF
:10438000A8210E94852170F3959FC1F3950F50E0FD
:10439000551F629FF001729FBB27F00DB11D639FF7
:1043A000AA27F00DB11DAA1F649F6627B00DA11D9D
:1043B000661F829F2227B00DA11D621F739FB00D43
:1043C000A11D621F839FA00D611D221F749F3327B3
:1043D000A00D611D231F849F600D211D822F762F4C
:1043E0006A2F11249F5750409AF0F1F088234AF029
:1043F000EE0FFF1FBB1F661F771F881F9150504095
:10440000A9F79E3F510580F00C941B220C94A82123
:104410005F3FE4F3983ED4F3869577956795B7951B
:10442000F795E7959F5FC1F7FE2B880F911D969535
:10443000879597F9089597F99F6780E870E060E0A5
:1044400008959FEF80EC089500240A94161617062D
:1044500018060906089500240A9412161306140675
:1044600005060895092E0394000C11F4882352F0D8
:10447000BB0F40F4BF2B11F460FF04C06F5F7F4F90
:104480008F4F9F4F089597FB072E16F4009407D087
:1044900077FD09D00E945D2207FC05D03EF490957F
:1044A00081959F4F0895709561957F4F0895EE0F08
:1044B000FF1F0590F491E02D0994AA1BBB1B51E14D
:1044C00007C0AA1FBB1FA617B70710F0A61BB70B84
:1044D000881F991F5A95A9F780959095BC01CD0129
:1044E0000895F999FECF92BD81BDF89A992780B5BC
:1044F0000895A8E1B0E042E050E00C949922262F04
:10450000F999FECF92BD81BDF89A019700B40216C9
:1045100039F01FBA20BD0FB6F894FA9AF99A0FBE77
:1045200008950196272F0E9480220C947F22DC019F
:10453000CB01FC01F999FECF06C0F2BDE1BDF89AAE
:10454000319600B40D9241505040B8F70895F89458
:02455000FFCF9B
:10455200CF012808140A321E021AA01A751A3F1A2D
:10456200051A01F0C66766369431373534973390B1
:10457200919293404D36391708CA0794075B07EEAC
:084582000607072007390700B6
:00000001FF
