:100000000C9497010C94DE010C94DE010C94DE013B
:100010000C94DE010C94DE010C94DE010C94DE01E4
:100020000C94DE010C94DE010C94D6070C94A80805
:100030000C9438170C94DE010C94DE010C94DE0154
:100040000C94DE010C94DE010C94DE010C94DE01B4
:100050000C94DE010C9477170C94DE010C94DE01F5
:100060000C94DE010C94DE010C94DE010C94DE0194
:100070000C94DE010C94DE010C94DE010C94DE0184
:100080000C94DE010C94DE010C94DE010C94DE0174
:100090000C94DE010C94DE010C94DE010C94DE0164
:1000A0000C94DE010C94DE010C94DE01E419FB19C2
:1000B000C919631A631A651A631A631A0F1A631A45
:1000C000211A371A631A631A631A631A651A651AB2
:1000D000631A651A631A051A631A631A5D1A5D1AA0
:1000E0005D1A5D1A5D1A5D1A5D1A5D1A5D1A5B1A5A
:1000F000631A5B1A631A631A631A631A631A631A20
:10010000631A631A631A631A631A5B1A631A631A0F
:10011000651ACE195F1A5F1A5F1A5F1A5F1A5F1AA3
:100120005F1A5F1A5F1A5F1A5F1A5F1A401A631A22
:10013000ED1929141A0815171C180C12132A2B0470
:100140001607090A0B0D0E0F3328E11D1B061905B2
:100150001110363752E5E0E3E2C1C02C2CC0385014
:10016000514F351E1F20212223242526274C394696
:1001700047494A4B2F3031343328E148014C4D4E2A
:100180002D2E3637A9E5E0E3E2C1C00101C03850A9
:10019000AAA8293A3B3C3D3E3F404142432A2B44DA
:1001A00045010101010101013328E10101010101C2
:1001B0000101363701E5E0E3E2C1C00101C03801C9
:1001C00001C22901010101015F606154012A2B0173
:1001D000010101015C5D5E550128E10101010101A0
:1001E000595A5B5601E5E0E3E2C1C0010162635781
:1001F00028C2F1A1F1A2088A05010906A10105079B
:1002000019E029E71500250195087501810295017E
:1002100075088101050819012905950575019102E7
:100220009501750391010507190029FF150025FFA8
:10023000950675088100C005010980A10185021697
:10024000010026B7001A01002AB700751095018138
:1002500000C0050C0901A1018503160100269C02BE
:100260001A01002A9C02751095018100C005010940
:1002700006A101050719E029E71500250195087574
:10028000018102050819012905950575019102955D
:1002900001750391010507190029771500250195BE
:1002A0007875018102C01201100100000008EDFE06
:1002B000606001000102000109025400030100A076
:1002C00032090400000103010100092111010001AC
:1002D000223F000705810308000A09040100010309
:1002E00000000009211101000122360007058203E8
:1002F00008000A090402000103000000092111019D
:1003000000012239000705830310000104030904DA
:100310000E03770069006E00620069006E00000045
:100320000C034F004300440034003000000011244F
:100330001FBECFEFDAE0DEBFCDBF04B603FE27C09D
:100340008091C0019091C101A091C201B091C301FF
:10035000873020EB920727E0A20720EBB207B9F421
:100360001092C0011092C1011092C2011092C301FB
:1003700014BE84B7877F84BF88E10FB6F89480935A
:100380006000109260000FBEE0E0F8E3099511E014
:10039000A0E0B1E0E0E3F8E302C005900D92A232E4
:1003A000B107D9F711E0A2E2B1E001C01D92A03C73
:1003B000B107E1F70E94F4040C94161C0C940000A1
:1003C0000895089580EC90E0089583E090E008950A
:1003D000462F672F0E94FB1A0895805C0E94ED1A39
:1003E000089582E391E0089582EF91E008958AB143
:1003F000807D8AB98BB1807D8BB9089584E00895A2
:100400008CE0089580E885BF85BF0E94F701809841
:10041000889A6E98769A8AB18F768AB98BB18069FC
:100420008BB987B18F7387B988B1806C88B984B173
:10043000857084B985B18A6F85B9109223011092B5
:10044000220110922B0110922A0110922501109284
:10045000240110922D0110922C011092270110926C
:10046000260110922F0110922E0110922901109254
:10047000280110923101109230010895CF92DF923D
:10048000EF92FF920F931F93DF93CF930F92CDB70D
:10049000DEB70AE2C02E01E0D02E40E010EAE12EE5
:1004A00001E010E0B5E0FB2E423051F0433059F04E
:1004B000413019F0509A589808C0519A599805C07F
:1004C000529A5A9802C0539A5B988E2D8A95F1F7EA
:1004D0002FB130E02170307020273127669B03C098
:1004E00080E090E002C082E090E0282B392B86B1BA
:1004F000992787FD9095809590958827990F881F5B
:100500009927880F991F880F991F282B392B369B05
:1005100003C060E070E002C068E070E0262B372B7B
:100520001E9B03C060E070E002C060E170E0262B1B
:10053000372B4C9B03C080E090E002C080E290E04B
:10054000282B392B199B03C080E090E002C080E487
:1005500090E0282B392B83B1992787FD90958095C2
:1005600090958827990F881F99279695982F882707
:1005700097958795282B392B1D9B03C080E090E031
:1005800002C080E091E0282B392B1C9B03C080E047
:1005900090E002C080E092E0282B392B89B19927A6
:1005A00087FD9095809590958827990F881F9927AA
:1005B000982F8827990F990F282B392B1B9B03C045
:1005C00080E090E002C080E098E0282B392BF60113
:1005D000808191818217930721F031832083F092EB
:1005E000000149830E94F70149814F5F82E090E05A
:1005F000C80ED91E443009F057CF809100018823DE
:1006000051F1815080930001882309F580912A01DE
:1006100090912B01909323018093220180912C01D2
:1006200090912D01909325018093240180912E01BA
:1006300090912F01909327018093260180913001A2
:1006400090913101909329018093280104C080EAA0
:100650009FE00197F1F781E00F90CF91DF911F911B
:100660000F91FF90EF90DF90CF900895E82FF0E08A
:10067000EE0FFF1FEE5DFE4F80819181089508957A
:1006800081FF02C0229A01C022982A980895809181
:10069000430108950895DF93CF9300D00F92CDB713
:1006A000DEB72091B701243029F523E029839B830D
:1006B0008A8382E08093E9008FEF25ED05C0922FB9
:1006C0009A95F1F7882329F09091E800815095FFE1
:1006D000F6CF8091E80085FF0DC0CE01019663E062
:1006E00070E040E050E00E949F058091E8008E7726
:1006F0008093E8000F900F900F90CF91DF910895B5
:10070000DF93CF9300D00F92CDB7DEB72091B70122
:10071000243021F522E029839B838A832093E900FA
:100720008FEF25ED05C0922F9A95F1F7882329F0D8
:100730009091E800815095FFF6CF8091E80085FF09
:100740000DC0CE01019663E070E040E050E00E94F1
:100750009F058091E8008E778093E8000F900F90BE
:100760000F90CF91DF9108950F931F938C0180918B
:10077000B701843009F046C080910C018823C1F094
:1007800083E08093E9008FEF25E105C0922F9A95D1
:10079000F1F7882329F09091E800815095FFF6CF7A
:1007A0008091E80085FF2EC0C80160E170E017C0AD
:1007B00081E08093E9008FEF25ED05C0922F9A9597
:1007C000F1F7882329F09091E800815095FFF6CF4A
:1007D0008091E80085FF16C0C80168E070E040E045
:1007E00050E00E949F058091E8008E778093E8009A
:1007F000A3E3B1E0802F912FFC0180E101900D92E5
:100800008150E1F71F910F9108958091B6018823DF
:1008100049F40E945A070E94B7078091E200846061
:100820008093E20008951092B601089508950E9401
:10083000E10108950E9435170895089581E061EC63
:1008400042E00E94CE0682E061EC42E00E94CE06C9
:1008500083E061EC42E10E94CE0608958091B901E7
:10086000833009F458C0843030F4813071F0823024
:1008700009F0B9C0A0C08A3009F48DC08B3009F4EA
:100880006BC0893009F0AFC020C08091B801813AB7
:1008900009F0A9C08091E800877F8093E8008091EB
:1008A000BC019091BD01009721F060E080E090E0F4
:1008B00003C060E183E391E070E00E94FE05809157
:1008C000E8008B778093E80008958091B801813229
:1008D00009F089C08091BC019091BD01009721F081
:1008E0008230910509F07FC08091E800877F809376
:1008F000E80005C08091B701882309F474C0809195
:10090000E80082FFF7CF8091F1008093430180914E
:10091000E8008B771CC08091B801813A09F063C070
:100920008091BC019091BD01009709F05CC080915D
:10093000E800877F8093E8008091E80080FFFCCF8B
:10094000809101018093F1008091E8008E7780937F
:10095000E8000E94050708958091B801813209F0EE
:1009600042C08091BC019091BD010097E1F580915A
:10097000E800877F8093E8000E9405079091BA0104
:1009800081E0992309F480E08093010180930C01B8
:100990000E946D0E08958091B801813221F58091F9
:1009A000E800877F8093E8000E9405078091BB01E3
:1009B0008093320108958091B801813AA1F4809129
:1009C000E800877F8093E8008091E80080FFFCCFFB
:1009D000809132018093F1008091E8008E778093BE
:1009E000E8000E940507089584B7877F84BF88E1E7
:1009F0000FB6F89480936000109260000FBE90E0F4
:100A000080E80FB6F89480936100909361000FBE68
:100A10000E945A070E94B7078091E2008460809389
:100A2000E20078948091B7018430E1F70E949D0A3A
:100A300082E091E00E944F0A0CC00E94FA16809159
:100A4000B501882331F00E942017882311F00E94FD
:100A500089058091B701853081F30E94A90AF9CFF9
:100A60009330A1F0943038F4913009F443C09230BF
:100A700009F045C006C09132E9F0923209F03FC05A
:100A800027C024E530E0E8EBF2E03DC0813049F0DA
:100A9000813018F0823099F508C0ECE0F3E0249141
:100AA00007C0E0E1F3E0249103C0E0E2F3E0249129
:100AB00030E029C0633018F5E62FF0E0EE0FFF1F9D
:100AC000E15FFE4F0190F081E02D29E030E01BC096
:100AD0006330A8F470E0660F771FFB01EB5EFE4FFA
:100AE0000190F081E02D655E7E4FDB012D913C9100
:100AF000119709C022E130E0E6EAF2E004C020E00C
:100B000030E0E0E0F0E0DA011196FC93EE93C901E9
:100B1000089580E189BD82E189BD09B400FEFDCF61
:100B20008091D8008F7D8093D8008091E000826012
:100B30008093E0008091E00081FDFCCF08958F92CA
:100B40009F92BF92CF92DF92EF92FF920F931F93EB
:100B5000DF93CF930F92CDB7DEB7E82E4B018A011A
:100B600099830E942607B82E99818823C9F5F92E0A
:100B70000115110539F0F80120813181821A930A9B
:100B8000E20EF31ECC24DD2426C08091E80085FD12
:100B900017C08091E8008E778093E8000115110559
:100BA00051F0F801808191818C0D9D1D918380838E
:100BB00025E0B22E15C00E942607882361F00FC0E1
:100BC000F70181917F018093F100089481089108D9
:100BD0000894C11CD11C81149104B9F601C0B82E2F
:100BE0008B2D0F90CF91DF911F910F91FF90EF9080
:100BF000DF90CF90BF909F908F900895482F592FEE
:100C0000FA018091BE019091BF018617970718F4F1
:100C1000BC0140E03DC061157105D9F78091E80045
:100C20008E778093E800F5CF8091B701882309F48F
:100C300047C0853009F446C08091E80083FD3EC07E
:100C40008091E80082FD34C08091E80080FF20C0E0
:100C50009091F3008091F200392F20E090E0822BF8
:100C6000932B06C041914093F10061507040019672
:100C70006115710519F088309105A0F341E08830C5
:100C8000910509F040E08091E8008E778093E800BC
:100C90006115710549F6442339F60AC08091B70100
:100CA000882371F0853071F08091E80083FD0CC0DD
:100CB0008091E80082FFF2CF80E0089581E00895FE
:100CC00082E0089583E0089581E00895E82FF92FE8
:100CD0008091BE019091BF018617970718F4BC015F
:100CE00040E03EC061157105D9F78091E8008E772C
:100CF0008093E800F5CF8091B701882309F448C0BC
:100D0000853009F447C08091E80083FD3FC08091A1
:100D1000E80082FD35C08091E80080FF21C09091FD
:100D2000F3008091F200392F20E090E0822B932B8A
:100D300007C044914093F100319661507040019694
:100D40006115710519F08830910598F341E08830FC
:100D5000910509F040E08091E8008E778093E800EB
:100D60006115710541F6442331F60AC08091B7013F
:100D7000882371F0853071F08091E80083FD0CC00C
:100D80008091E80082FFF2CF80E0089581E008952D
:100D900082E0089583E0089581E00895982F2CC0A3
:100DA000292F2F702093E900981739F07091EC00EB
:100DB0002091ED005091F00003C0242F762F50E0D9
:100DC00021FF19C03091EB003E7F3093EB00309152
:100DD000ED003D7F3093ED003091EB0031603093BA
:100DE000EB007093EC002093ED005093F000209105
:100DF000EE0027FF08C09F5F973090F28F708093BE
:100E0000E90081E0089580E008958091B80187FFAE
:100E100013C004C08091B7018823B9F08091E80025
:100E200082FFF8CF8091E8008B778093E8000895E7
:100E30008091B701882349F08091E80080FFF8CFC6
:100E40008091E8008E778093E80008958091E40017
:100E50009091E50044E62091EC0020FF26C020910F
:100E6000E80020FD16C02091B7012223A1F0253013
:100E7000A1F02091EB0025FD12C02091E4003091FB
:100E8000E5002817390739F3442359F04150C901C7
:100E9000E2CF80E0089582E0089583E0089581E044
:100EA000089584E0089580E008952091E80022FFED
:100EB000DACFF9CF0E94C9070E94D107E0EEF0E037
:100EC000808181608083E8EDF0E080818F7780838E
:100ED00019BCA7EDB0E08C918E7F8C9380818F7EC2
:100EE00080831092B60108950F931F93CF93DF93E1
:100EF0000E94C9070E94D107C8EDD0E088818F7792
:100F0000888388818068888388818F7D888319BCE5
:100F10001092B7011092B3011092B5011092B40172
:100F200000EE10E0F80180818B7F808388818160F2
:100F3000888380E060E042E00E94CE06E1EEF0E0CF
:100F400080818E7F8083E2EEF0E08081816080830B
:100F5000808188608083F80180818E7F8083888192
:100F600080618883DF91CF911F910F910895E8ED03
:100F7000F0E080818F7E8083E7EDF0E0808181600A
:100F8000808384E082BF81E08093B6010E94740771
:100F90000895E8EDF0E080818E7F80831092E2007A
:100FA00008951092DA001092E10008951F920F92B6
:100FB0000FB60F9211242F933F934F935F936F932C
:100FC0007F938F939F93AF93BF93EF93FF93809102
:100FD000E10082FF0BC08091E20082FF07C0809198
:100FE000E1008B7F8093E1000E941D048091DA0074
:100FF00080FF1FC08091D80080FF1BC08091DA0065
:101000008E7F8093DA008091D90080FF0DC080E14F
:1010100089BD82E189BD09B400FEFDCF81E08093E6
:10102000B7010E94050405C019BC1092B7010E94C7
:1010300013048091E10080FF19C08091E20080FFDD
:1010400015C08091E2008E7F8093E2008091E200E3
:1010500080618093E2008091D80080628093D80004
:1010600019BC85E08093B7010E9417048091E100CC
:1010700084FF30C08091E20084FF2CC080E189BDF4
:1010800082E189BD09B400FEFDCF8091D8008F7D3B
:101090008093D8008091E1008F7E8093E100809161
:1010A000E2008F7E8093E2008091E2008160809375
:1010B000E2008091B301882311F084E007C08091A1
:1010C000E30087FF02C083E001C081E08093B701A5
:1010D0000E941A048091E10083FF29C08091E20000
:1010E00083FF25C08091E100877F8093E10082E04B
:1010F0008093B7011092B3018091E1008E7F8093BD
:10110000E1008091E2008E7F8093E2008091E20016
:1011100080618093E20080E060E042E00E94CE06C1
:101120008091F00088608093F0000E941604FF9187
:10113000EF91BF91AF919F918F917F916F915F914F
:101140004F913F912F910F900FBE0F901F901895C8
:101150001F920F920FB60F9211241F932F933F935C
:101160004F935F936F937F938F939F93AF93BF93AF
:10117000EF93FF931091E9001F708091EC001092A3
:10118000E9008091F000877F8093F00078940E94BE
:10119000E4081092E9008091F00088608093F000EC
:1011A0001093E900FF91EF91BF91AF919F918F91C3
:1011B0007F916F915F914F913F912F911F910F9070
:1011C0000FBE0F901F9018951F93DF93CF93CDB74D
:1011D000DEB7AC970FB6F894DEBF0FBECDBFE8EB1D
:1011E000F1E08091F100819321E0E03CF207C9F742
:1011F0000E942E048091E80083FF39C18091B801DC
:101200002091B901253009F484C0263040F4213002
:10121000A1F1213070F0233009F029C12EC028300F
:1012200009F4F4C0293009F404C1263009F01FC1C3
:1012300094C0803821F0823809F019C108C080912B
:10124000B4019091B501992371F082600CC0809136
:10125000BC018F708093E9009091EB0081E095FFD5
:1012600080E01092E9009091E800977F9093E80069
:101270008093F1001092F100D4C0882319F08230DD
:1012800009F0F5C090E08F719070009729F08230DE
:10129000910509F0ECC00BC08091BA01813009F0D2
:1012A000E6C0233009F080E08093B5012CC0809126
:1012B000BA01882341F52091BC012F7009F4D7C0F1
:1012C0002093E9008091EB0080FF1DC08091B9015F
:1012D000833021F48091EB00806213C08091EB0099
:1012E00080618093EB0081E090E002C0880F991F3D
:1012F0002A95E2F78093EA001092EA008091EB00D1
:1013000088608093EB001092E9008091E800877F6D
:101310008BC0882309F0ABC01091BA011F77809170
:10132000E3008078812B8093E3008091E800877F41
:101330008093E8000E9405078091E80080FFFCCFC1
:101340008091E30080688093E300112311F083E033
:1013500001C082E08093B7018AC08058823008F0D3
:1013600086C08091BA019091BB0123E08C3D920729
:1013700099F583E08C838AE28B835FB7F894DE0172
:10138000159680E090E04EE061E2E42FF0E060939B
:101390005700E49180FF03C0E295EF704F5FEF705C
:1013A0002E2F30E0EA3018F0295C3F4F02C0205D5C
:1013B0003F4F2D933D9301968431910531F75FBFE7
:1013C0008091E800877F8093E800CE0103966AE26F
:1013D00070E00E94FE0514C06091BC01AE014F5F39
:1013E0005F4F0E943005BC01009709F440C0809116
:1013F000E800877F8093E80089819A810E946606D1
:101400008091E8008B778093E80031C0803879F5CF
:101410008091E800877F8093E8008091B3018093FA
:10142000F1008091E8008E778093E8000E94050724
:101430001EC08823E1F49091BA019230C0F48091EB
:10144000E800877F8093E8009093B3010E9405072E
:101450008091B301882321F48091E30087FF02C0CB
:1014600084E001C081E08093B7010E941E04809156
:10147000E80083FF0AC08091E800877F8093E8003E
:101480008091EB0080628093EB00AC960FB6F894ED
:10149000DEBF0FBECDBFCF91DF911F910895909316
:1014A0004901809348010895809148019091490134
:1014B0000895E0914801F0914901309729F0019099
:1014C000F081E02D0995089580E00895E0914801AC
:1014D000F0914901309721F00280F381E02D0995C8
:1014E000089520914601309147018217930771F0CA
:1014F0009093470180934601E0914801F0914901A2
:10150000309721F00680F781E02D0995089520910C
:101510004401309145018217930771F09093450182
:1015200080934401E0914801F0914901309721F006
:101530000084F185E02D099508950E9461170E94AD
:1015400002020E9408180E94B71B08950E944003DF
:1015500008953F924F925F926F927F928F929F92E7
:10156000AF92BF92CF92DF92EF92FF920F931F93B1
:10157000DF93CF93CDB7DEB72A970FB6F894DEBFCF
:101580000FBECDBF0E943E022BE4822E21E0922EA0
:1015900000E010E091E0492E512C302E802F0E9467
:1015A00036033C01F401A190B1904F01A826B92661
:1015B000A114B104E1F18091A90181FF02C00E9450
:1015C0003F03EE24FF2462010E2C02C0CC0CDD1C74
:1015D0000A94E2F7C6018A219B21009709F10E9433
:1015E0006A17E9823A826C207D2061E061147104FF
:1015F00009F460E06B838160782F9D838C8349813F
:101600005A818D810E94C80EF801EE0FFF1FE55B25
:10161000FE4F808191818C259D25918380831DC003
:101620000894E11CF11CFCE0EF16F10461F60F5F79
:101630001F4F0430110509F0B0CF0E946A172FEF39
:101640002E832F8318868160782F9A8789874FEFA2
:101650005FEF60E08A850E94C80E00914A010E94F7
:10166000590A081731F00E94590A80934A010E94D2
:10167000A60A2A960FB6F894DEBF0FBECDBFCF9153
:10168000DF911F910F91FF90EF90DF90CF90BF906F
:10169000AF909F908F907F906F905F904F903F9012
:1016A00008951F93182F882309F4C1C0823859F474
:1016B0000E94590A81FDBBC089E30E9411140E9457
:1016C000A01589E30CC0833879F40E94590A80FD83
:1016D000AEC083E50E9411140E94A01583E50E940C
:1016E000D7140E94A015A3C0843859F40E94590A47
:1016F00082FD9DC087E40E9411140E94A01587E41A
:10170000EECF8450813A50F4812F0E946D1A8823C5
:1017100009F08DC0812F0E941114E3CF812F805ECC
:10172000883050F4177081E090E001C0880F1A955E
:10173000EAF70E947215D5CF812F855A833078F44D
:10174000153A29F0163A31F482E890E005C081E8B4
:1017500090E002C083E890E00E94710A68C0812F87
:10176000885A833108F063C0183A39F1193A41F1C7
:101770001A3A49F11B3A51F11C3A59F11D3A61F1FB
:10178000103B69F11E3A71F11F3A79F1113B81F179
:10179000123B89F1133B91F1143B99F1153BA1F1F7
:1017A000163BA9F1173BB1F1183BB9F1193BC1F157
:1017B0001A3BC9F58AE292E038C082EE90E035C06B
:1017C00089EE90E032C08AEE90E02FC085EB90E089
:1017D0002CC086EB90E029C087EB90E026C08CEC13
:1017E00090E023C08DEC90E020C083E891E01DC024
:1017F0008AE891E01AC082E991E017C084E991E09B
:1018000014C081E292E011C083E292E00EC084E253
:1018100092E00BC085E292E008C086E292E005C04B
:1018200087E292E002C080E090E00E94870A1F9168
:101830000895882309F44EC0823859F40E94590A49
:1018400081FF48C089E30E9411140E94A01589E31A
:101850000CC0833869F40E94590A80FF3BC083E5BD
:101860000E9411140E94A01583E50E94D7141FC086
:10187000843859F40E94590A82FF2CC087E40E94E0
:1018800011140E94A01587E4F0CF982F9450913A3C
:1018900060F3982F905E983068F4282F277081E0CD
:1018A00090E001C0880F2A95EAF70E9478150E94FF
:1018B000A0150895982F955A933028F480E090E071
:1018C0000E94710A0895885A833120F480E090E0E4
:1018D0000E94870A0895882321F00E9472150E94B1
:1018E000A0150895882321F00E9478150E94A01564
:1018F0000895CF92DF92EF92FF920F931F93DF93A1
:10190000CF93CDB7DEB72A970FB6F894DEBF0FBEE0
:10191000CDBF8C01DE011196FC0185E001900D9296
:101920008150E1F7F80120814181F28035813295C3
:101930003F7083819481009709F4B1C14F3F09F052
:1019400066C12F3F09F063C1AAC18F70992311F4BA
:10195000082F03C0082F0295007FFF2059F00023B5
:1019600009F435C1802F69870E9482150E94A01555
:1019700069852DC1862F0E94190C002309F48FC19F
:10198000802F0E9488150E94A01589C18F70903207
:1019900011F08295807F662319F06130F1F413C055
:1019A000FF2039F0332319F1313009F50E949215E7
:1019B00076C1332319F0313009F471C18A870E944E
:1019C00095158A85DFC0FF2021F0363008F067C109
:1019D0000EC0353008F063C1D5C0FF2059F0332365
:1019E00031F0F801958190FFF2C09F7095830E94BD
:1019F0006B0C55C1332309F4C5C0F3C030E0211589
:101A0000310529F02130310509F049C109C0FF2015
:101A100011F0862F02C080E090E00E94710A3FC161
:101A2000FF2011F0862F02C080E090E00E94870A1C
:101A300036C1992309F045C0FF2009F030C1DD0C03
:101A4000DD0CFF2400E010E00D2C04C0EE0CFF1CA8
:101A5000001F111F0A94D2F764FF10C06FE070E0FE
:101A600080E090E004C0660F771F881F991FDA940A
:101A7000D2F7609570958095909504C060E070E015
:101A800080E090E030E02230310569F0233031050C
:101A900089F06E297F29802B912B2130310571F03F
:101AA0000E941013FCC06E297F29802B912B0E946D
:101AB0001F13F5C00E941013C801B7010E94011343
:101AC000EEC0FF2019F090FD03C0E9C091FFE7C010
:101AD000DD0CDD0CFF2400E010E00D2C04C0EE0C4A
:101AE000FF1C001F111F0A94D2F764FF10C06FE0A3
:101AF00070E080E090E004C0660F771F881F991F98
:101B0000DA94D2F7609570958095909504C060E066
:101B100070E080E090E030E02230310569F0233061
:101B2000310589F06E297F29802B912B21303105D9
:101B300071F00E94AC13B3C06E297F29802B912BCA
:101B40000E94BB13ACC00E94AC13C801B7010E9435
:101B50009D13A5C0603FC9F0613F18F4603E98F145
:101B600007C0623F19F1623FE8F0633F61F522C0B0
:101B70008F71FF2021F00E9445138E2D38CF0E94D7
:101B800061138E2D0E94720C8AC0FF2021F0353027
:101B900008F085C003C0363008F081C08F710E9404
:101BA00081137DC08F71FF2009F116C08F71FF2056
:101BB00099F01CC0FF2021F08F710E9435136FC077
:101BC0000E942E136CC0FF2051F0332321F0862F8A
:101BD0000E94510B64C08F710E94451360C0332373
:101BE00021F0862F0E94190C5AC08F710E94611338
:101BF00056C0482F4F70C8010E94F6160E947312FB
:101C00004EC0482F4F70C8010E94F91648C0898104
:101C10009A8138870E94CB13682F892F5FE0E52EC9
:101C2000E622D62ED294D69447E0D4229370282F61
:101C3000269526952370C82EC2943FE0C3222F8399
:101C400069878A879E830E94CA130E94FD12EC2D29
:101C5000F0E02F81388569858A859E81E430F10521
:101C600009F4CCCEE530F1053CF4982F907FE230BA
:101C7000F1050CF46ACE8ACEEC30F10544F4EA307A
:101C8000F1050CF067CFE830F10549F4D2CEEC3025
:101C9000F10509F4AECFEF30F10509F4B2CF2A9681
:101CA0000FB6F894DEBF0FBECDBFCF91DF911F916D
:101CB0000F91FF90EF90DF90CF9008950E948F15C5
:101CC0000E9464150E94A01580E090E00E94710AB5
:101CD00080E090E00E94870A08950E947F150E948C
:101CE0005E0E08950E94CB13492F4F7092959F70FE
:101CF000292F30E02C3031054CF42A3031056CF4BA
:101D0000225030402230310588F407C02C30310594
:101D100051F02F30310551F406C0803E10F0803F65
:101D200039F481E0089581E043FD03C080E0089527
:101D300080E00895DF93CF9300D000D00F92CDB70D
:101D4000DEB70F900F900F900F900F90CF91DF9113
:101D50000895DF93CF9300D000D000D0CDB7DEB789
:101D600026960FB6F894DEBF0FBECDBFCF91DF91A0
:101D70000895DF93CF9300D000D00F92CDB7DEB798
:101D80000F900F900F900F900F90CF91DF910895CB
:101D9000DF93CF93CDB7DEB72B970FB6F894DEBFA6
:101DA0000FBECDBF4F83588769877A878B87DE0147
:101DB000119686E0FD0111928A95E9F7FE013796AA
:101DC00085E001900D928150E1F74F81588569853A
:101DD0007A858B850E94B90E49815A816B817C81FD
:101DE0008D819E810E94B4112B960FB6F894DEBFB0
:101DF0000FBECDBFCF91DF9108954115510551F030
:101E00006F3F59F421E030E08F3F11F020E030E0E7
:101E1000C901089581E090E0089580E090E0089580
:101E2000CF93DF9380915A0117C0C82FD0E0FE01F5
:101E3000EE0FFF1FEC0FFD1FEE0FFF1FE55AFE4FC9
:101E40004081518162817381848195810E94A90EB4
:101E500021969E012770822F90915901891729F7A9
:101E6000DF91CF91089540915301509154016091B9
:101E700055017091560180915701909158010E942F
:101E8000A90E0895AF92BF92DF92EF92FF920F9347
:101E90001F93DF93CF930F92CDB7DEB78091580198
:101EA00082958F7009F05EC080915501882309F4F6
:101EB00059C090915A01D0905901E0905301F0908F
:101EC0005401A0905601B0905701850100951095DE
:101ED00046C08E2D6F2DA50199830E94FD0E99811C
:101EE0008823D9F5292F30E0F901EE0FFF1FE20F0B
:101EF000F31FEE0FFF1FE55AFE4F8181F81669F5BB
:101F00008081E81651F58281882339F54381548117
:101F10004A155B0518F04A195B0902C0400F511FB2
:101F2000483C5105D0F4809158018F7080618093B6
:101F30005801F901EE0FFF1FE20FF31FEE0FFF1F15
:101F4000E05AFE4F80818F708061808383E591E04D
:101F50000E94790C0E94100F05C09F5F97709D151D
:101F600009F0B7CF0F90CF91DF911F910F91FF90A4
:101F7000EF90DF90BF90AF9008957F928F929F92E5
:101F8000AF92BF92CF92DF92EF92FF920F931F9387
:101F9000DF93CF93CDB7DEB761970FB6F894DEBF6E
:101FA0000FBECDBF8C01DE011196FC0185E00190D2
:101FB0000D928150E1F7D801AC9011969C90119749
:101FC0001296BC9012971396ED90FC901497809007
:101FD000530170905401C0905601D0905701882D44
:101FE000672DA6010E94FD0E882309F07EC1809115
:101FF0005501882309F40AC120915801EC14FD040D
:1020000038F0C7018C199D09883C910550F0A7C094
:10201000C094D094CE0CDF1CB8ECCB16D10408F0E1
:102020009EC0822F807F09F058C0791499F48A14D9
:1020300089F4BB2079F42F702061209358010E940D
:10204000330F83E591E00E94790C80915801F801EB
:10205000858365C18A2D692DA7010E94FD0E882305
:1020600099F5BB20A1F580915A012091590116C024
:1020700090E0FC01EE0FFF1FE80FF91FEE0FFF1FAE
:10208000E55AFE4F3181931639F43081A31621F4BD
:102090003281332309F043C101968770821741F7DB
:1020A00053C19F7061F0882351F439C19F7039F09A
:1020B000D80115969C911597907F09F430C1805EE8
:1020C000883008F42CC126C1BB2009F428C18091B6
:1020D000580181608093580122C1791491F48A14C7
:1020E00081F4BB2071F4F8012583C8010E94790CAA
:1020F000A3E5B1E0F80186E001900D928150E1F78F
:1021000006C189819A810E94720E882309F402C156
:10211000BB2009F4FFC040915801842F82958F7035
:1021200090E08230910594F0CE01069626E0DC0125
:102130001D922A95E9F720915301309154013F8374
:102140002E83FA86E9864B870E94790CA3E5B1E0DD
:10215000F80186E001900D928150E1F7D6C0822F00
:10216000807F91F449815A816B817C818D810E94AD
:102170009A0E03E511E0C8010E94790C86E0F8018F
:1021800011928A95E9F7AEC0791491F48A1481F41A
:10219000BB2071F4D80115962C93C8010E94790CCC
:1021A000E3E5F1E086E0DF011D928A95E9F7B5C02D
:1021B00089819A810E94720E882309F4ABC0BB20EA
:1021C00009F4A8C040915801842F82958F7090E047
:1021D0008230910594F0CE010C9626E0FC0111921C
:1021E0002A95E9F720915301309154013D872C87BE
:1021F000F88AEF86498B0E94790CA3E5B1E0F801DB
:1022000086E001900D928150E1F77FC0EC14FD044F
:1022100038F0EC18FD08F8ECEF16F10450F054C05B
:10222000C094D094CE0CDF1C88ECC816D10408F002
:102230004BC0BB2009F46EC0791489F58A1479F576
:102240002091580120FD22C0322F32953F70832FFC
:1022500090E00097D9F0D80115962C9315978F3000
:10226000910541F0832F8F5F8295807F2F70282BFF
:1022700015962C93C8010E94790CA3E5B1E0F801F2
:1022800086E001900D928150E1F741C0A3E5B1E0F5
:10229000F80186E001900D928150E1F73EC08981FE
:1022A0009A810E94720E882349F0A3E5B1E0F801FB
:1022B00086E001900D928150E1F727C0809158018E
:1022C00081608093580126C049815A816B817C814D
:1022D0008D810E949A0EE3E5F1E086E0DF011D9218
:1022E0008A95E9F70E94330F1AC0BB2099F08981C3
:1022F0009A810E94720E882369F0A3E5B1E0F8018B
:1023000086E001900D928150E1F70E94420F0E94F9
:10231000330F03C0C8010E94790C81E001C080E046
:1023200061960FB6F894DEBF0FBECDBFCF91DF919F
:102330001F910F91FF90EF90DF90CF90BF90AF90E3
:102340009F908F907F90089589819A810E94CB13EE
:10235000292F22952F7030E0223031050CF4A1CEC8
:1023600024303105BCF6A2CEEF92FF920F931F935B
:10237000DF93CF93CDB7DEB72C970FB6F894DEBFBF
:102380000FBECDBF4F83588769877A878B879C871D
:102390008E01095F1F4FC8010E94BD0F882391F075
:1023A0004A855B858F8168850E94FD0E882309F030
:1023B00078C04F81588569857A858B859C850E9478
:1023C000A90E6FC0DE011196F80186E001900D9212
:1023D0008150E1F7EF80F8840A851B858E2D6F2DE3
:1023E000A8010E94FD0E882309F05BC020915901CD
:1023F00030E0A9014F5F5F4F4770507080915A01E4
:1024000090E04817590709F453C0F901EE0FFF1F78
:10241000E20FF31FEE0FFF1FE55AFE4FDE0111968C
:1024200086E00D9001928150E1F7F901EE0FFF1F58
:10243000E20FF31FEE0FFF1FE55AFE4FE082F1821D
:1024400014830383409359010E94100F2AC030E087
:10245000C901880F991F820F931F880F991F855AF2
:102460009E4F0E94BD0F882389F180915A0190E010
:10247000FC01EE0FFF1FE80FF91FEE0FFF1FE55ADB
:10248000FE4F4081518162817381848195810E94D8
:10249000A90E80915A0190E0019687709070809308
:1024A0005A0120915A0180915901281781F60EC0D6
:1024B0000E946D0E1092590110925A01E3E5F1E06D
:1024C00086E0DF011D928A95E9F7EBCF2C960FB6D7
:1024D000F894DEBF0FBECDBFCF91DF911F910F915A
:1024E000FF90EF900895DF92EF92FF920F931F936A
:1024F000CF93DF93EC01009709F461C0DD2480EAFB
:10250000E82E8FE0F82E01E010E0FE012196849184
:10251000843748F4843008F042C0813079F082304A
:1025200009F04DC01CC0853709F435C0853740F12E
:10253000982F9458903708F042C034C0FE0121967D
:102540008491982F905E983050F58770902F01C03D
:10255000990F8A95EAF7892F0E94821526C0FE01FD
:1025600021968491982F905E9830E8F48770902F90
:1025700001C0990F8A95EAF7892F0E94881515C026
:10258000FE012196E49104C0C7010197F1F7E150E3
:10259000EE23D1F70AC0FE012196D49006C00E9416
:1025A000510B03C08F770E94190C2D2D04C0C70159
:1025B0000197F1F72150222309F4A7CFF8CFDF913B
:1025C000CF911F910F91FF90EF90DF90089560934E
:1025D0008B0170938C0180938D0190938E010E94EA
:1025E0005E0E089560938F01709390018093910126
:1025F000909392010E945E0E089508950E94E71242
:10260000089520918B0130918C0140918D01509162
:102610008E01622B732B842B952B0E94E712089559
:1026200020918B0130918C0140918D0150918E0150
:1026300062237323842395230E94E7120895209137
:102640008B0130918C0140918D0150918E01622758
:102650007327842795270E94E712089560E070E0B1
:1026600080E090E00E94F212089521E030E040E026
:1026700050E004C0220F331F441F551F8A95D2F724
:10268000CA01B9010E94F212089521E030E040E051
:1026900050E004C0220F331F441F551F8A95D2F704
:1026A00080918F0190919001A0919101B091920140
:1026B000282B392B4A2B5B2BCA01B9010E94F2123D
:1026C000089521E030E040E050E004C0220F331FC5
:1026D000441F551F8A95D2F7209530954095509507
:1026E00080918F0190919001A0919101B091920100
:1026F000282339234A235B23CA01B9010E94F2121D
:10270000089521E030E040E050E004C0220F331F84
:10271000441F551F8A95D2F780918F0190919001A7
:10272000A0919101B0919201282739274A275B2770
:10273000CA01B9010E94F212089520918F013091CF
:1027400090014091910150919201622B732B842B47
:10275000952B0E94F212089520918F0130919001E3
:102760004091910150919201622373238423952318
:102770000E94F212089520918F01309190014091B2
:1027800091015091920162277327842795270E9417
:10279000F21208950895CF92DF92EF92FF920F9375
:1027A0001F93CF93DF936C01E0908B01F0908C012D
:1027B00000918D0110918E0180918F019091900177
:1027C000A0919101B0919201E82AF92A0A2B1B2BC2
:1027D000CFE1D0E0D801C7010C2E04C0B695A79573
:1027E000979587950A94D2F781709070009739F089
:1027F0008C2FB6010E947B168130910549F42197F8
:102800003FEFCF3FD30731F780E0B6010E947B1640
:10281000DF91CF911F910F91FF90EF90DF90CF90BC
:102820000895CF92DF92EF92FF920F931F93CF9371
:10283000DF93182F80910C018823C9F0812F869592
:10284000869586958F3008F0A9C0E0910D01F09132
:102850000E01E80FF11D177081E090E002C0880FB3
:10286000991F1A95E2F72181282B218397C0E090C8
:102870009301F0909601FF2009F478C020910D019A
:1028800030910E01009194015E2D4FEFC6E0D0E033
:10289000852F992787FD9095F901E80FF91F62812F
:1028A000611709F47BC04F3F19F4662309F4452FE3
:1028B0000196E6E0F0E0BE010E94BE1B582F801793
:1028C00039F70E1509F052C04F3F71F4802F992748
:1028D00087FD90950196BF010E94BE1B80939301D6
:1028E000FA94F092960142C0842F992787FD909523
:1028F0000196BF010E94BE1BFF24F394E6E0F0E0C6
:10290000C82FDD27C7FDD0956901CC0EDD1ED6018D
:1029100012966C9112976623A1F0842F992787FD58
:102920009095A901480F591FDA0112966C93D601B0
:1029300012961C9212970196BF010E94BE1B482F4F
:1029400001C0F394CE010196BF010E94BE1B801707
:10295000B9F6802F992787FD909506968F199109D2
:1029600066E070E00E94BE1B809394018091940108
:10297000992787FD9095E0910D01F0910E01E80FE8
:10298000F91F1283019666E070E00E94BE1B8093DF
:102990009401809196018F5F80939601DF91CF9192
:1029A0001F910F91FF90EF90DF90CF900895FF92CD
:1029B0000F931F93CF93DF93482F80910C018823AF
:1029C000D1F0842F8695869586958F3008F076C055
:1029D000E0910D01F0910E01E80FF11D477021E02B
:1029E00030E002C0220F331F4A95E2F72095818123
:1029F0002823218363C020919301F0909601FF204A
:102A000009F45CC0E0910D01F0910E010091940178
:102A1000112707FD1095C6E0D0E030E0DF01A20FDE
:102A2000B31FCD01029612965C9112975417C9F507
:102A3000DC011C92FA94F0929601FF2021F410928E
:102A400093011092940140919401842F992787FD5E
:102A50009095059666E070E00E94BE1B2817390726
:102A600069F50091930126E030E0842F992787FDD6
:102A700090950596B9010E94BE1BF82E482F992704
:102A800087FD90950596B9010E94BE1BDC01AE0F33
:102A9000BF1F12968C911297882371F4F01629F7B4
:102AA0000BC0C9010196BE010E94BE1B282F8017D2
:102AB000910709F0B2CF02C0F0929401DF91CF915B
:102AC0001F910F91FF90089580E090E00196E091B2
:102AD0000D01F0910E01E80FF91F10828F30910562
:102AE000A9F7089590919501982B909395010895D9
:102AF0008095909195019823909395010895109257
:102B00009501089590919801982B909398010895BC
:102B10008095909198019823909398010895109230
:102B20009801089580939701089510929701089550
:102B300080910C01882319F48091960108950895DD
:102B4000E0910D01F0910E01809195018083E0915B
:102B50000D01F0910E01808190919801892B808365
:102B600090919701992369F0E0910D01F0910E0188
:102B70008081892B80830E949815882311F00E9400
:102B8000951580910D0190910E010E94660A08959D
:102B90008D3B50F4883A00F5853AA8F4843080F4EF
:102BA000813009F05FC009C0803E08F45BC0883EF8
:102BB00038F0803F08F456C051C021E030E099C0A1
:102BC000282F30E096C0853A09F44FC0863A09F0C4
:102BD0004FC022E830E48DC0883A09F44CC0893AED
:102BE00009F44CC08A3A09F44CC08B3A09F44CC041
:102BF0008C3A09F44CC08B3B09F44CC08C3B09F473
:102C00004CC08D3A09F44CC0803B09F44CC08E3A5C
:102C100009F44CC08F3A09F44CC0813B09F44CC014
:102C2000823B09F44CC0833B09F44CC0843B09F45B
:102C30004CC0853B09F44CC0863B09F44CC0873B33
:102C400009F44CC0883B09F44CC0893B09F44CC0E2
:102C50008A3B09F04CC02AE236E44BC0282F30E012
:102C6000306547C020E030E044C021E830E441C096
:102C700023E830E43EC022EE34E43BC029EE34E4E5
:102C800038C02AEE34E435C025EB34E432C026EBFC
:102C900034E42FC023EB34E42CC024EB34E429C00B
:102CA00027EB34E426C02CEC34E423C02DEC34E4D0
:102CB00020C023E835E41DC02AE835E41AC022E923
:102CC00035E417C024E935E414C021E236E411C02C
:102CD00023E236E40EC024E236E40BC025E236E4FB
:102CE00008C026E236E405C027E236E402C020E050
:102CF00034E4C90108950E94E801803EB0F4803CAC
:102D000020F5813309F460C0823338F4893209F444
:102D100053C08A3209F067C05CC08933C9F0823879
:102D2000B9F0853309F05FC042C0833E29F1843E8B
:102D300030F4803EA1F0823E09F055C018C0863EB6
:102D400029F1873E09F04FC026C00E94ED01089589
:102D50009091B20190FD09C091FF42C006C08091E0
:102D6000B20180FF02C089E33BC080EE39C0809190
:102D7000B20182FD07C004C08091B20182FF02C08F
:102D800082EE2EC084FD0FC083EE2AC08091B20176
:102D900083FD07C004C08091B20183FF02C086EEAC
:102DA0001FC084FF02C080E01BC087EE19C0809165
:102DB000B20185FF05C006C08091B20185FF02C047
:102DC00085E30EC089E20CC08091B20186FF05C088
:102DD00006C08091B20186FF02C081E301C08AE291
:102DE0000E94C81508950E94C815089580E090E0DB
:102DF000089508958091B701843009F11092AA01D5
:102E000020E488E190E00FB6F894A89580936000E4
:102E10000FBE2093600083B7817F846083BF83B738
:102E2000816083BF7894889583B78E7F83BF88E164
:102E30000FB6F89480936000109260000FBE089562
:102E40001F930E94E0010E943E020E94E10110E0F7
:102E5000812F0E943603009729F41F5F1430C1F7B9
:102E600080E001C081E01F9108950E946D0E0895D9
:102E70001F920F920FB60F9211248F939F93AF93CF
:102E8000BF938091AA01882399F48091AB0190911E
:102E9000AC01A091AD01B091AE014196A11DB11D53
:102EA0008093AB019093AC01A093AD01B093AE01C0
:102EB000BF91AF919F918F910F900FBE0F901F9078
:102EC000189582E084BD93E095BD9AEF97BD8093FD
:102ED0006E0008958FB7F8942091AB013091AC014A
:102EE0004091AD015091AE018FBFC90108951F926D
:102EF0000F920FB60F9211248F939F93AF93BF93AE
:102F00008091AB019091AC01A091AD01B091AE0167
:102F10000196A11DB11D8093AB019093AC01A093CC
:102F2000AD01B093AE01BF91AF919F918F910F9082
:102F30000FBE0F901F9018950E945A07F89480E2D8
:102F40009EE420E931E0F9013197F1F70197D9F7D3
:102F500087E090EBA7E0B0EB8093C0019093C101B4
:102F6000A093C201B093C3012CE088E190E00FB6BA
:102F7000F894A895809360000FBE20936000FFCF67
:102F8000CF92DF92EF92FF920F931F93CF93DF9335
:102F9000C82EDD24C1E0D0E08D2D0E9436037C01D7
:102FA00000E010E09E01002E02C0220F331F0A94A1
:102FB000E2F72E213F212115310539F080E0602F05
:102FC0007D2D0E94E801C81659F00F5F1F4F0C308D
:102FD000110541F7D3948D2D8430F1F680E001C0C6
:102FE00081E0DF91CF911F910F91FF90EF90DF90E3
:102FF000CF9008951F93182F8CE20E94C01788234A
:1030000021F0812F0E94C01701C080E01F91089518
:103010001F93CF93DF930E947919882311F40E94A4
:10302000571914E6C0E4DCE905C00E943E02CE0157
:103030000197F1F71150C8F789E20E94FA17882327
:1030400009F031C18AE20E94FA17882331F00E9408
:1030500072190E9457190E94351B85E00E94FA17C9
:10306000882311F00E949C170E9485198093A90162
:1030700087E00E94FA178823B9F18BE10E94FA17C2
:10308000882349F09091A901892F869580958170B8
:10309000880F9D7F26C08EE00E94FA17882359F082
:1030A0009091A901892F8695869580958170880FCA
:1030B000880F9B7F16C080E10E94FA179091A901AA
:1030C000882359F0892F86958695869580958170FD
:1030D000880F880F880F977F04C0892F8095817093
:1030E0009E7F982B9093A9018091A9010E948A1933
:1030F0000E949B198093B20180EE0E94FA178823E8
:1031000049F08091B201982F909591708E7F892B14
:103110008093B20189E30E94FA17882359F09091B5
:10312000B201892F869580958170880F9D7F982B9D
:103130009093B20182EE0E94FA17882369F0909171
:10314000B201892F8695869580958170880F880FAA
:103150009B7F982B9093B20186EE0E94FA178823EA
:1031600079F09091B201892F869586958695809504
:103170008170880F880F880F977F982B9093B201EA
:1031800083EE0E94FA17882369F09091B201892F8B
:1031900082958F70809581708295807F9F7E982B1D
:1031A0009093B20185E30E94FA17882379F09091F9
:1031B000B201892F8295869587708095817082955E
:1031C000880F807E9F7D982B9093B20181E30E94AF
:1031D000FA17882389F09091B201892F82958695FC
:1031E00086958370809581708295880F880F807C8A
:1031F0009F7B982B9093B20181E10E94FA1788235C
:1032000079F09091B201892F881F8827881F21E0CB
:1032100082278795882787959F77982B9093B2016F
:103220008091B2010E94A0198091B201881F882765
:10323000881F80930C0187E20E94FA17182F8EE1F5
:103240000E94FA17811112608FE10E94FA17811112
:10325000146080E20E94FA178111186081E20E94D6
:10326000FA178111106182E20E94FA17811110622F
:1032700083E20E94FA178111106484E20E94FA1717
:10328000882311F0106802C0112329F0812F0E94B9
:103290009519612F03C00E949019682F70E080E09B
:1032A00090E00E94FE12DF91CF911F91089580E07F
:1032B00090E06DEE7EEF0E94011C82E090E060E005
:1032C0000E94F31B83E090E060E00E94F31B84E027
:1032D00090E060E00E94F31B85E090E060E00E94D7
:1032E000F31B089580E090E06FEF7FEF0E94011CD8
:1032F000089580E090E00E94ED1B21E03EEF8D3EBE
:10330000930709F020E0822F089582E090E00E9468
:10331000E51B0895682F82E090E00E94F31B08955A
:1033200083E090E00E94E51B0895682F83E090E021
:103330000E94F31B089584E090E00E94E51B08952D
:10334000682F84E090E00E94F31B089521E030E0B4
:1033500040E050E004C0220F331F441F551F8A95E0
:10336000D2F7CA01B9010E94FE120E946D0E0895A3
:10337000282F30E0265030402334310508F0A3C018
:103380002A5A3F4FF901EE0FFF1F0590F491E02DEF
:1033900009940E9485190E949B1997C00E94540AA3
:1033A000009759F00E94540A9093B1018093B001A4
:1033B0000E946D0E80E090E004C08091B001909179
:1033C000B1010E944F0A81C08091A901807F809342
:1033D000A90181E08093AF0108950E946D0E80E104
:1033E00097E220E931E0F9013197F1F70197D9F738
:1033F0000E949C176AC08091A90180FF02C0807F53
:1034000001C081608093A90160C09091A901892FBA
:10341000869580958170282F220F9D7F0BC09091FB
:10342000A901892F8695869580958170282F220F76
:10343000220F9B7F922B9093A901882309F445C00A
:1034400012C09091A901892F8695869586958095C1
:103450008170282F220F220F220F977F922B90939B
:10346000A9018823A1F191609093A9012EC00E9427
:103470006D0E80910C0191E0892780930C0125C08D
:1034800081E890E00E94710A88EE93E020E931E043
:10349000F9013197F1F70197D9F780E090E00E94A8
:1034A000710A88E893E120E931E0F9013197F1F7F9
:1034B0000197D9F70AC080E003C08D5101C089533C
:1034C0000E94A61902C080E0089581E0089581E07D
:1034D000089580E0089580E008951F93182F80914B
:1034E000AF01882319F0813091F508C0E0910D01FA
:1034F000F0910E018081823261F507C0E0910D01EB
:10350000F0910E018081823249F4812F0E94691A64
:103510008823D1F4812F0E94B8191CC0812F0E94EA
:103520006B1A882389F4143151F0153118F41B30CB
:1035300041F40AC0193219F0183319F405C0109279
:10354000AF0180E090E006C081E090E003C01092FF
:10355000AF0180E01F910895BF92CF92DF92EF926A
:10356000FF920F931F93CF93DF9380E190E00E942F
:10357000ED1B6C01C0E0D0E00DEE1EEF0EC0CE01E1
:1035800042960E94E51BC0FF03C0F82EEE2402C045
:10359000E82EFF240E0D1F1D21960E94FE01B82E5D
:1035A0000E9400028B9DC0011124089623E0880F21
:1035B000991F2A95E1F7C817D90708F381E0C016CB
:1035C000D10609F080E0DF91CF911F910F91FF901C
:1035D000EF90DF90CF90BF90089590E0880F991FF3
:1035E00042960E94ED1B089590E0880F991F429625
:1035F0000E94011C0895FF920F931F93DF93CF93B6
:1036000000D0CDB7DEB7182F4A8369830E94FE0130
:10361000F82E0E940002082F0E9400026981869FF6
:10362000B00111244A81640F711DF09EF001112434
:10363000412F50E0E49F9001E59F300DF49F300D45
:103640001124620F731FCB018E5A9F4F0E94E51BFE
:103650000F900F90CF91DF911F910F91FF900895E0
:103660008E5A9F4F0E94F31B08956F927F928F9204
:103670009F92AF92BF92CF92DF92EF92FF920F9301
:103680001F93CF93DF930E94F4016C010E94F1011C
:103690005C01C114D10421F10E94E5013C01EE243A
:1036A000FF24CDEEDEEFE614F70430F4F601859149
:1036B0009491082F192F02C000E010E08E2DB80160
:1036C0000E94F41AC00FD11F0894E11CF11C82E083
:1036D00090E0C80ED91E90E2E916F10421F702C06D
:1036E000CDEEDEEFA114B10471F10E94E2017C0184
:1036F00000E010E018C00E151F0528F4F501E00FDA
:10370000F11FC49001C0CC24C8016C2D0E94301B55
:1037100000FD03C08C2C992402C09C2C8824C80D69
:10372000D91D0F5F1F4F0E94FE01C82E0E9400028C
:10373000C89EC001112453E0880F991F5A95E1F7E4
:1037400008171907C0F280E190E0BE010E94011C39
:10375000DF91CF911F910F91FF90EF90DF90CF906D
:10376000BF90AF909F908F907F906F9008950E9430
:10377000AC1A882311F40E94351B089597FB092E7B
:1037800007260AD077FD04D00CD006D000201AF40A
:10379000709561957F4F0895F6F7909581959F4FAD
:1037A0000895AA1BBB1B51E107C0AA1FBB1FA61788
:1037B000B70710F0A61BB70B881F991F5A95A9F7DA
:1037C00080959095BC01CD010895F999FECF92BDE9
:1037D00081BDF89A992780B50895A8E1B0E042E04C
:1037E00050E00C94081C262FF999FECF1FBA92BD09
:1037F00081BD20BD0FB6F894FA9AF99A0FBE0196D2
:1038000008950E94F31B272F0C94F41BDC01CB01BD
:10381000FC01F999FECF06C0F2BDE1BDF89A3196E0
:1038200000B40D9241505040B8F70895F894FFCF7E
:1038300005014703B4034A0380034B03019901CAFE
:1038400002E302FC02F80137026D023F0036003944
:02385000000076
:00000001FF
